:020000040800F2
:1000000028070020E1020008E9020008EB020008CE
:10001000ED020008EF020008F102000800000000F5
:10002000000000000000000000000000F3020008D3
:10003000F502000800000000F7020008D92E0008B1
:10004000FB020008FB020008FB020008FB0200089C
:10005000FB020008FB020008FB020008FB0200088C
:10006000FB020008FB020008FB020008FB0200087C
:10007000FB020008FB020008FB020008FB0200086C
:10008000FB020008FB020008FB020008FB0200085C
:1000900095320008FB020008FB020008FB02000882
:1000A000E12E0008593B0008FB020008FB02000893
:1000B000FB020008FB020008FB020008FB0200082C
:1000C000FB020008FB020008FB020008FB0200081C
:1000D000FB020008FB020008FB020008CD460008F6
:1000E000FB020008FB020008FB020008DFF80CD04E
:1000F00004F088FD00480047B92D000828070020BB
:100100000CB50020019000906C48006840F48030ED
:100110006A49086000BF6948006800F40030009038
:100120000198401C0190009818B90198B0F5A06F93
:10013000F1D16248006800F4003010B10120009055
:1001400001E0002000900098012843D15C4800683D
:1001500040F010005A4908600846006820F003008B
:1001600008600846006840F0020008605348406894
:10017000524948600846406848600846406840F474
:10018000806048600846406820F47C10486008465B
:10019000406840F4E81048600846006840F080700D
:1001A000086000BF4548006800F000700028F9D0E2
:1001B0004248406820F003004049486008464068D3
:1001C00040F00200486000BF3C48406800F00C006E
:1001D0000828F9D10CBD10B5FFF792FF10BD10B57E
:1001E0003648006840F0010034490860084640681D
:1001F000344908403149486008460068324908409F
:100200002E4908600846006820F4802008600846EF
:10021000406820F4FE0048604FF41F008860FFF73C
:10022000DAFF4FF000602949086010BD10B50021C9
:1002300000200022214B5B6803F00C0121B104294E
:1002400006D0082928D107E0214B224C236027E063
:100250001F4B204C236023E0184B5B6803F47010A5
:10026000164B5B6803F48032022303EB904022B903
:10027000194B4343174C23600DE0104B5B6803F4AC
:10028000003323B1144B4343124C236003E0104B63
:100290004343104C236003E00D4B0E4C236000BF22
:1002A00000BF064B5B68C3F303130C4CE15C094BC6
:1002B0001B68CB40074C236010BD000000100240BB
:1002C000002002400000FFF8FFFFF6FE08ED00E00E
:1002D00000127A000000002000093D000400002008
:1002E0000648804706480047FEE7FEE7FEE7FEE7D0
:1002F000FEE7FEE7FEE7FEE7FEE7FEE7DF010008B8
:10030000ED00000831490143314A1160704770B572
:10031000002100230F22C47804B32D4C246804F478
:10032000E064C4F5E064210AC1F10403CA404478E2
:1003300004FA03F18478144021430901254C06781E
:10034000A155047804F01F050124AC4005786D1117
:10035000AD0005F1E025C5F8004109E0047804F09E
:100360001F050124AC401C4D0678761145F8264047
:1003700070BD1A4A0A400243154B1B1F1A60704792
:1003800039B1134A121D12680243114B1B1D1A602A
:1003900006E00F4A121D126882430D4B1B1D1A60A6
:1003A0007047042808D14FF0E021096941F00401A9
:1003B0004FF0E022116107E04FF0E021096921F0E0
:1003C00004014FF0E0221161704700000000FA05BF
:1003D0000CED00E000E400E080E100E080FFFF1FA2
:1003E00010B50446FA48844208D10121401501F0B5
:1003F00077FB0021601501F073FB17E0F54884429C
:1004000008D10121001501F06BFB0021201501F03E
:1004100067FB0BE0F048844208D10121C80301F0DA
:100420005FFB00214FF4004001F05AFB10BD30B5D6
:100430000246002000235068E84C20400D790C68EB
:1004400044EA0524204350609068E54C2040D1E9FF
:1004500002542C434D7944EA450420439060D06A0D
:1004600020F470000C7C641EE4B2234340EA035085
:10047000D06230BD00210160017141718160C160B5
:1004800001210174704721B1826842F0010282604B
:1004900003E0826822F001028260704721B1826825
:1004A00042F48072826003E0826822F4807282608B
:1004B000704710B50023CBB21AB144681C434460A6
:1004C00002E044689C43446010BD816841F008012B
:1004D00081607047014600208A6802F008020AB174
:1004E000012000E000207047816841F00401816034
:1004F0007047014600208A6802F004020AB1012018
:1005000000E00020704721B1826842F4A0028260BE
:1005100003E0826822F4A002826070470146002056
:100520008A6802F480020AB1012000E000207047CE
:1005300010B50A4600210023416821F46041531E92
:1005400041EA4331416010BD21B1426842F400628A
:10055000426003E0426822F4006242607047F0B5F6
:1005600004460D4600200021092D11DDE068A5F1AB
:100570000A0606EB4607072606FA07F18843A5F1A7
:100580000A0606EB460603FA06F10843E0600CE0B3
:10059000206905EB4507072606FA07F1884305EBB6
:1005A000450603FA06F108432061072A0FDA606B5B
:1005B000561E06EB86071F2606FA07F18843561ECD
:1005C00006EB860605FA06F10843606322E00D2A71
:1005D0000FDA206BD61F06EB86071F2606FA07F1F7
:1005E0008843D61F06EB860605FA06F1084320630A
:1005F00010E0E06AA2F10D0606EB86071F2606FA58
:1006000007F18843A2F10D0606EB860605FA06F10E
:100610000843E062F0BD21B1826842F4801282603A
:1006200003E0826822F48012826070470146C86C41
:1006300080B2704766484C300068704721B142680C
:1006400042F48062426003E0426822F480624260C9
:10065000704721B1426842F48052426003E0426830
:1006600022F48052426070470A460021816821F4DA
:10067000E04111438160704721B1826842F4004239
:10068000826003E0826822F400428260704721B1F8
:10069000826842F40212826003E0826822F402124D
:1006A00082607047014600208A6802F400120AB195
:1006B000012000E000207047F0B5044615460020F8
:1006C00000220026092911DDE068A1F10A0707EBE5
:1006D000470C072707FA0CF29043A1F10A0707EB32
:1006E000470703FA07F21043E0600CE0206901EBD2
:1006F000410C072707FA0CF2904301EB410703FA7C
:1007000007F210432061A06BC0F30156EF1C06F105
:10071000010CA7EB0C0707EB870C1F2707FA0CF25D
:100720009043EF1C06F1010CA7EB0C0707EB8707C2
:1007300001FA07F21043A063F0BD10B50A4600218C
:100740000023816B21F44011531E41EA0351816360
:1007500010BD08B5002300930090009B0B4400934C
:10076000009B1A6008BD08B5024600200090009268
:1007700001F12800009B184400900098006880B2A6
:1007800008BD0A4600214168164B194011434160DB
:1007900070474162826270470A460021416821F039
:1007A0001F0111434160704740B109490831096890
:1007B00041F40001064A0832116007E0044908319B
:1007C000096821F40001024A0832116070470000F4
:1007D0000024014000280140003C0140FFFEF0FFE2
:1007E000FDF7F1FFFFFD3FFF0246002013680B40BD
:1007F0000BB1012000E000207047CA43026070473F
:1008000070B502460020002300240B125568CEB2BA
:1008100005EA060415681D4015B10CB1012000E081
:10082000002070BD00220A12D3430360704700000D
:1008300010B50446FE48844209D10121480601F062
:100840005CF900214FF0007001F057F908E0012138
:10085000880601F052F900214FF0806001F04DF957
:1008600010BD30B5024600200023146824F00204B5
:100870001460146844F00104146000E05B1C5468C8
:1008800004F001041CB94FF6FF74A342F6D154687A
:1008900004F001040CB900206CE08C79012C04D127
:1008A000146844F08004146003E0146824F08004A9
:1008B0001460CC79012C04D1146844F04004146015
:1008C00003E0146824F0400414600C7A012C04D175
:1008D000146844F02004146003E0146824F0200439
:1008E00014604C7A012C04D1146844F01004146094
:1008F00003E0146824F0100414608C7A012C04D1F5
:10090000146844F00804146003E0146824F0080438
:100910001460CC7A012C04D1146844F004041460EF
:1009200003E0146824F0040414608C78A407CD78E4
:1009300044EA05640D7944EA05444D7944EA0554D6
:100940000D886D1E2C43D461146824F001041460DA
:10095000002300E05B1C546804F001041CB14FF656
:10096000FF74A342F6D1546804F001040CB10020D6
:1009700000E0012030BD10B50021837A012202FA87
:1009800003F1AC4A126842F00102AA4B1A60A94A6C
:100990001C3212688A43A74B1C331A60027BCAB907
:1009A000A44A0C3212688A43A24B0C331A60428864
:1009B000C38842EA03439F4A4032847A42F8343083
:1009C0000288838842EA03439A4A4032847A02EBDF
:1009D000C4025360027B012A19D1964A0C32126874
:1009E0000A43944B0C331A604288038842EA03435B
:1009F000904A4032847A42F83430C288838842EA8E
:100A000003438C4A4032847A02EBC4025360C27AB8
:100A10003AB9884A121D12688A43864B1B1D1A6018
:100A200006E0844A121D12680A43824B1B1D1A609D
:100A3000028932B97F4A143212688A437D4B1433DB
:100A40001A600289012A06D17A4A143212680A43CE
:100A5000784B14331A60427B012A06D1754A1C3246
:100A600012680A43734B1C331A60724A126822F0F0
:100A70000102704B1A6010BD00218171C1710172B9
:100A800041728172C1728170C170032101710221B2
:100A900041710121018070476649096841F00101F7
:100AA000644A11601146096843F60E729143614A27
:100AB00011601146096841EA002111601146096878
:100AC00021F001011160704721B1026842F48032C7
:100AD000026003E0026822F4803202607047E1B1F4
:100AE000026842F0800202604FF4C272125842F46F
:100AF00080734FF4C27213504FF4CA72125842F40A
:100B000080734FF4CA7213504FF4D272125842F4E9
:100B100080734FF4D27213501BE0026822F08002FF
:100B200002604FF4C272125822F480734FF4C27202
:100B300013504FF4CA72125822F480734FF4CA72E1
:100B400013504FF4D272125822F480734FF4D272C1
:100B50001350704710B502460020936803F080637D
:100B6000B3F1806F00D110E0936803F00063B3F13C
:100B7000006F01D1012008E0936803F08053B3F1C6
:100B8000805F01D1022000E00420042879D002F522
:100B9000C07303EB00131B6803F0010402F5C0737C
:100BA00003EB00131C600B7A7BB94B7A0C8843EA89
:100BB000445302F5C07404EB00142468234302F587
:100BC000C07404EB0014236010E00B7A4C6843EA15
:100BD000C4034C7A234302F5C07404EB0014246868
:100BE000234302F5C07404EB001423608B7A03F0F6
:100BF0000F038B7202F5C07303EB00135B6823F0E5
:100C00000F0402F5C07303EB00135C6002F5C073C0
:100C100003EB00135B688C7A234302F5C07404EB8A
:100C2000001463608B7B1C064B7B44EA034403E0A7
:100C300000640040006600400B7B44EA0323CC7A4A
:100C4000234302F5C07404EB0014A3608B7C1C06E4
:100C50004B7C44EA03440B7C44EA0323CC7B2343D0
:100C600002F5C07404EB0014E36002F5C07303EBFB
:100C700000131B6843F0010402F5C07303EB00137B
:100C80001C6010BD10B50246002321B1012907D018
:100C900002290FD109E09068F94C00EA04030BE047
:100CA0009068F84C00EA040306E09068F64C00EA0D
:100CB000040301E0002300BF00BFF44C181BA34253
:100CC00016D007DC83B16FF08060184470B1022841
:100CD00018D111E0B0F5007F10D0ED4C204448B1A0
:100CE000B0F5003F0ED10BE002230DE000230BE036
:100CF000002309E0002307E0012305E0012303E0CE
:100D0000012301E0002300BF00BFD8B210BD21B114
:100D1000012907D002290FD109E0826842F0800240
:100D200082600AE0826842F40042826005E08268E4
:100D300042F40002826000E000BF00BF704710B5BF
:100D400000F5D87303EB01131B6803F0040313725F
:100D5000137A53B900F5D87303EB01131B6840F203
:100D6000FF7404EA5353136009E000F5D87303EBF2
:100D700001131B686FF0604404EAD303536000F56D
:100D8000D87303EB01131B6803F00203537200F5E1
:100D9000D87303EB01135B6803F00F03937200F544
:100DA000D87303EB01135B681B0AD37400F5D87387
:100DB00003EB01139B68D37200F5D87303EB0113A7
:100DC0009B681C0A147300F5D87303EB01139B682E
:100DD0001C0C547300F5D87303EB01139B681B0EB6
:100DE000937300F5D87303EB0113DB68D37300F53D
:100DF000D87303EB0113DB681C0A147400F5D87375
:100E000003EB0113DB681C0C547400F5D87303EB7F
:100E10000113DB681B0E937421B9C36843F02003F0
:100E2000C36003E0036943F02003036110BD21B9EF
:100E3000C26842F02002C26003E0026942F0200270
:100E4000026170470246002019B9D36803F003001D
:100E500006E0012903D1136903F0030000E000203C
:100E6000704710B502460B4600204FF6FF71BBB924
:100E7000146824F0020444F00104146000E0491EE8
:100E8000546804F00304012C01D00029F7D1546800
:100E900004F00304012C01D0002032E0012030E0F6
:100EA000012B13D1146824F00304146000E0491EE0
:100EB000546804F003040CB10029F8D1546804F01C
:100EC00003040CB100201CE001201AE0022B17D112
:100ED000146824F0010444F00204146000E0491E88
:100EE000546804F00304022C01D00029F7D154689F
:100EF00004F00304022C01D0002002E0012000E0F5
:100F0000002010BD014600200A6822F0010242F0D4
:100F100002020A604A6802F00302022A00D101209C
:100F2000704701464FF6FF7200200B6823F0020362
:100F30000B6000E0521E4B6803F00203022B01D14C
:100F4000002AF7D14B6803F00203022B00D00120E6
:100F50007047014600208A6902F070007047014620
:100F600000208A69100E7047014600208A69C2F38A
:100F7000074070471AB143690B43436102E043697C
:100F80008B434361704710B50246002001F47003A3
:100F900043B19369C1F3130423400BB101202DE049
:100FA00000202BE001F0807343B15368C1F31304B8
:100FB00023400BB1012021E000201FE001F000637D
:100FC00043B19368C1F3130423400BB1012015E032
:100FD000002013E001F0007343B1D368C1F31304A0
:100FE00023400BB1012009E0002007E01369C1F3A1
:100FF000130423400BB1012000E0002010BD0022AB
:10100000244B994202D10023836111E0C1F3130202
:1010100001F000730BB1C2600AE001F080630BB114
:10102000026105E001F000630BB1826000E0426004
:1010300070470246002002EA01030BB1012000E0E4
:101040000020704770B504460D46002660692840B0
:10105000002872D0B5F5807F69D01DDC082D42D004
:1010600006DC012D2DD0022D31D0042D7FD134E0AE
:10107000102D3ED0202D42D0402D78D145E00000EB
:101080000300000400030008000003100001000832
:101090000001FFF77000F030B5F5004F61D009DCBA
:1010A000B5F5007F4AD0B5F5806F4DD0B5F5006F2E
:1010B0005DD150E0B5F5803F2DD0B5F5003F56D15C
:1010C0002FE0A0685549FFF7B4FF064651E0E068FD
:1010D0000321FFF7AEFF06464BE0E0680821FFF76B
:1010E000A8FF064645E0E0681021FFF7A2FF06468C
:1010F0003FE020690321FFF79CFF064639E02069A5
:101100000821FFF796FF064633E020691021FFF71C
:1011100090FF06462DE060680821FFF78AFF06462B
:1011200027E060681021FFF784FF064621E0A069F0
:101130000121FFF77EFF06461BE01BE0A0690221AC
:10114000FFF777FF064614E0A0690421FFF771FF5F
:1011500006460EE00BE0A0697021FFF76AFF064625
:1011600007E060680421FFF764FF064601E00026FF
:1011700000BF00E00026304670BDB1F5007F3AD0D8
:101180000FDC202928D006DC01291CD004291DD021
:10119000082940D11DE0402921D0B1F5807F3AD106
:1011A00026E0B1F5004F31D006DCB1F5806F25D0D7
:1011B000B1F5006F2FD124E0B1F5803F12D0B1F529
:1011C000003F28D111E0154A826025E00822C26064
:1011D00022E01022C2601FE0082202611CE01022FF
:1011E000026119E00822426016E01022426013E01A
:1011F0000422426010E0042242600DE004224260BA
:101200000AE0002282610422426005E0002282613D
:101210000422426000E000BF00BF704701010100EE
:1012200001684FF6FE7211400160002101604160CB
:101230008160C1608D49884208D18C49083949686C
:1012400041F00F01894A083A51608AE08749143118
:10125000884208D185490839496841F0F001834A3C
:10126000083A51607DE081492831884208D17F49A0
:101270000839496841F470617C4A083A516070E06D
:101280007A493C31884208D178490839496841F4A3
:101290007041764A083A516063E07449503188429F
:1012A00008D172490839496841F470216F4A083AF7
:1012B000516056E06D496431884208D16B49083964
:1012C000496841F47001694A083A516049E0674948
:1012D0007831884208D165490839496841F0706120
:1012E000624A083A51603CE06149884206D1011FD8
:1012F000096841F00F01021F116032E05C491431AE
:10130000884208D15A49091F096841F0F001584A3A
:10131000121F116025E056492831884208D15449EE
:10132000091F096841F47061514A121F116018E0E9
:101330004F493C31884208D14D49091F096841F4A1
:1013400070414B4A121F11600BE0494950318842ED
:1013500007D14749091F096841F47021444A121F07
:101360001160704710B50022026847F6F0739A4387
:101370000C6A8B6823430C6923434C6923438C69B3
:101380002343CC6923434C6A23438C6A23431A4387
:101390000260CB6843600B6883604B68C36010BD1C
:1013A0000021016041608160C16001614161816132
:1013B000C161016241628162704721B1026842F0FD
:1013C0000102026004E002684FF6FE731A400260F8
:1013D00070471AB103680B43036002E003688B4354
:1013E00003607047416070470146486880B27047AB
:1013F00001460020002201F080531BB11C4B083B2A
:101400001A6802E0194B083B1A6802EA01030BB1A3
:10141000012000E00020704700F0805119B114490C
:10142000091F086002E01149083948607047014609
:101430000020002201F080531BB10D4B083B1A68BD
:1014400002E00A4B083B1A6802EA01030BB10120D3
:1014500000E00020704700F0805119B10449091FD5
:10146000086002E0014908394860704708000240FE
:101470000804024010B50446CC48844208D101213A
:10148000042000F02DFB0021042000F029FB46E0A1
:10149000C748844208D10121082000F021FB002127
:1014A000082000F01DFB3AE0C248844208D1012127
:1014B000102000F015FB0021102000F011FB2EE0A1
:1014C000BD48844208D10121202000F009FB002101
:1014D000202000F005FB22E0B848844208D1012119
:1014E000402000F0FDFA0021402000F0F9FA16E05B
:1014F000B348844208D10121802000F0F1FA002194
:10150000802000F0EDFA0AE0AE48844207D10121C4
:10151000801500F0E5FA0021A01500F0E1FA10BDF9
:1015200010B50121084600F0DBFA0021012000F08F
:10153000D7FA10BD2DE9F041024600250026002013
:1015400000230024002791F803C00CF00F0591F848
:1015500003C00CF0100CBCF1000F03D091F802C0D6
:101560004CEA050591F800C0BCF1000F31D01468B9
:1015700000202BE04FF0010C0CFA00F3B1F800C092
:101580000CEA03069E4220D183004FF00F0C0CFAA8
:1015900003F7BC4305FA03FC4CEA040491F803C0CA
:1015A000BCF1280F06D14FF0010C0CFA00FCC2F878
:1015B00014C00AE091F803C0BCF1480F05D14FF008
:1015C000010C0CFA00FCC2F810C0401C0828D1D352
:1015D0001460B1F800C0BCF1FF0F34DD5468002086
:1015E0002EE000F1080C4FF0010808FA0CF3B1F8F6
:1015F00000C00CEA03069E4221D183004FF00F0C7D
:101600000CFA03F7BC4305FA03FC4CEA040491F816
:1016100003C0BCF1280F05D100F1080C08FA0CF842
:10162000C2F8148091F803C0BCF1480F07D100F153
:10163000080C4FF0010808FA0CF8C2F81080401CA2
:101640000828CED35460BDE8F0814FF6FF710180C9
:10165000022181700421C170704702460020936806
:101660000B400BB1012000E0002070470146886864
:1016700080B2704702460020D3680B400BB10120B6
:1016800000E0002070470146C86880B270470161E1
:101690007047416170470AB1016100E041617047E4
:1016A000C16070474FF480320A4382618161826178
:1016B00082698269704702460020434B18684FF6E2
:1016C0008073184040EA021008433F4B186070478F
:1016D0003E49C8617047F0B50A4600230024002146
:1016E000002500F00046B6F1004F02D1364EF169F8
:1016F00001E0354E7168C0F3034583B200F4401633
:10170000B6F5401F08D121F070612F4E766826F0A3
:1017100070662D4F7E6012E000F48016B6F5801FD3
:1017200006D1032606FA05F4A14341F0706106E0F4
:10173000460D360103FA06F6B14341F0706122B15D
:10174000460D360103FA06F6314300F00046B6F1C5
:10175000004F02D11C4EF16101E01B4E7160F0BDE3
:1017600030B500228B071C0F0F2303FA04F2164B2F
:1017700008338C1053F824309343134C08348D10E5
:1017800044F8253023468C1053F824308C07240F5E
:1017900000FA04F423430C4C08348D1044F825302F
:1017A00030BD0A49DC310860704700000008014084
:1017B000000C0140001001400014014000180140DD
:1017C000001C0140002001400000014000002042B8
:1017D000DF48006840F00100DD49086008464068C5
:1017E000DC490840DA49486008460068DA490840A0
:1017F000D74908600846006820F480200860084641
:10180000406820F4FE0048604FF41F008860704775
:10181000CF49096821F48031CD4A11601146096829
:1018200021F480211160B0F5803F03D0B0F5802F06
:101830000ED106E0C649096841F48031C44A1160FE
:1018400007E0C349096841F4A021C14A116000E0E2
:1018500000BF00BF704710B50146002200230020E2
:101860004A11012A02D1BA4C236806E0022A02D1A9
:10187000B74C236A01E0B64C636A01F01F020124F1
:1018800094401C400CB1012000E0002010BD38B590
:10189000002000900024002500BF3120FFF7DBFF6F
:1018A00005460098401C00900098B0F5A06F01D04C
:1018B000002DF2D03120FFF7CEFF08B1012400E067
:1018C0000024204638BD01460020A14A106820F0BF
:1018D000F80040EAC10010607047A04908607047F6
:1018E000024600209A4B586820F47C1042EA01031B
:1018F0001843974B586070479849086670470146EF
:101900000020934A506820F003000843506070475D
:101910008F48406800F00C007047014600208C4A58
:10192000506820F0F00008435060704701460020E6
:10193000874A506820F4E0600843506070470146D1
:101940000020834A506820F4605040EAC100506093
:10195000704729B17E4A527A02437D4B5A7204E0A5
:101960007B4A527A82437A4B5A7270477B49D8310C
:101970000860704701460020754A506820F44040D6
:101980000843506070470021714A20321170704A3C
:1019900082F82010012802D004280AD104E0012195
:1019A0006B4A2032117005E00521694A203211701E
:1019B00000E000BF00BF7047694908607047644994
:1019C000096A0143624A11627047654944390860F7
:1019D000704730B500210022002400235C4D6D6863
:1019E00005F00C0121B1042905D0082923D105E017
:1019F0005C4D056022E05B4D05601FE0544D6D6855
:101A000005F47012524D6D6805F48034022505EB23
:101A100092421CB9544D554305600BE04C4D6D6826
:101A200005F400351DB1504D5543056002E04D4DA4
:101A30005543056002E04B4D056000BF00BF444DBB
:101A40006D6805F0F0010909484D6B5C0568DD40E3
:101A500045603F4D6D6805F4E061090A434D6B5CDC
:101A60004568DD4085603A4D6D6805F46051C90AEE
:101A70003E4D6B5C4568DD40C560354D6D6805F4D5
:101A80004041890B3A4D6B5CC568B5FBF3F50561C8
:101A900030BD29B12E4A526902432D4B5A6104E0F0
:101AA0002B4A526982432A4B5A61704729B1284A0E
:101AB00092690243264B9A6104E0254A9269824367
:101AC000234B9A61704729B1214AD2690243204BC6
:101AD000DA6104E01E4AD26982431D4BDA61704725
:101AE00029B11B4AD2680243194BDA6004E0184A54
:101AF000D2688243164BDA60704729B1144A1269E2
:101B00000243134B1A6104E0114A12698243104BDD
:101B10001A61704712494039086070470F49C8641C
:101B200070470B49C87170470948406A40F080709F
:101B300007494862704701460020054A92680A40FA
:101B40000AB1012000E00020704701498872704707
:101B5000001002400000FFF8FFFFF6FE00004242C6
:101B60008004424200127A0000093D001400002067
:101B70002400002010B50446FE48844208D101210B
:101B8000C014FFF7ADFF0021E014FFF7A9FFC4E088
:101B9000B4F1804F08D101210846FFF7AEFF0021C4
:101BA0000120FFF7AAFFB8E0F348844208D10121E1
:101BB0000220FFF7A2FF00210220FFF79EFFACE00A
:101BC000EE48844208D101210420FFF796FF00214E
:101BD0000420FFF792FFA0E0E948844208D10121E8
:101BE0000820FFF78AFF00210820FFF786FF94E016
:101BF000E448844208D101211020FFF77EFF002134
:101C00001020FFF77AFF88E0DF48844208D10121E5
:101C10002020FFF772FF00212020FFF76EFF7CE0FD
:101C2000DA48844208D101214014FFF759FF00210E
:101C30006014FFF755FF70E0D548844209D10121B7
:101C4000C804FFF74DFF00214FF40020FFF748FFC5
:101C500063E0D048844209D101210805FFF740FF25
:101C600000214FF48010FFF73BFF56E0CA48844242
:101C700009D101214805FFF733FF00214FF400107F
:101C8000FFF72EFF49E0C548844208D101214020DA
:101C9000FFF733FF00214020FFF72FFF3DE0C04852
:101CA000844208D101218020FFF727FF00218020F6
:101CB000FFF723FF31E0BB48844208D101218015A2
:101CC000FFF71BFF0021A015FFF717FF25E0B6481F
:101CD000844209D101210804FFF702FF00214FF4DB
:101CE0008030FFF7FDFE18E0B048844209D10121A1
:101CF0004804FFF7F5FE00214FF40030FFF7F0FE37
:101D00000BE0AB48844208D101218804FFF7E8FECC
:101D100000214FF48020FFF7E3FE10BD002202886F
:101D2000944B98420ED0994B98420BD0B0F1804F13
:101D300008D0914B984205D0904B984202D0904BDE
:101D4000984204D14FF68F731A404B881A438D4B3B
:101D5000984207D08C4B984204D04FF6FF431A406C
:101D6000CB881A4302808B8883850B880385814B3F
:101D700098420BD0854B984208D08B4B984205D0A7
:101D80008A4B984202D08A4B984201D10B7A038643
:101D900001238382704770B5002400220023058C44
:101DA0004FF6FE7635400584028C8388048B4FF60F
:101DB0008F752C40B51E2C400D882C43751E2A4073
:101DC0000D892A434D882A436A4DA8420BD06F4D96
:101DD000A84208D0744DA84205D0744DA84202D044
:101DE000734DA84213D14FF6F7752A404D892A4307
:101DF0004FF6FB752A408D882A434FF6FF652B402E
:101E00004FF6FF552B408D892B43CD892B43838083
:101E10000483CD888586028470BD70B500240022BD
:101E20000023058C4FF6EF7635400584028C8388BD
:101E3000048B48F6FF752C404FF6FF452C400D886B
:101E40004FF6FF7606EA05252C434FF6DF752A404C
:101E50000D8906EA05152A434D8806EA05152A4329
:101E6000444DA84202D0494DA8421DD14FF67F757E
:101E70002A404D894FF6FF7606EA05152A434FF6AC
:101E8000BF752A408D8806EA05152A434FF6FF35AF
:101E90002B404FF2FF752B408D8906EA85052B43B9
:101EA000CD8906EA85052B4383800483CD88058789
:101EB000028470BD70B5002400220023058C4FF60B
:101EC000FF6635400584028C8388848B4FF68F75BE
:101ED0002C404FF6FC752C400D882C434FF6FF55D7
:101EE0002A400D894FF6FF7606EA05252A434D88DC
:101EF00006EA05252A431F4DA84202D0234DA842D9
:101F00001DD14FF2FF752A404D894FF6FF7606EA44
:101F100005252A434FF6FF352A408D8806EA052518
:101F20002A434EF6FF752B404DF6FF752B408D89E9
:101F300006EA05152B43CD8906EA05152B43838058
:101F40008483CD888587028470BD70B5002200230C
:101F50000024058C4EF6FF7635400584038C84887A
:101F6000828B48F6FF752A404FF6FF452A400D88C0
:101F700020E00000002C0140000400400008004068
:101F8000000C0040001000400014004000340140EC
:101F9000004C014000500140005401400018004036
:101FA000001C00400020004000400140004401406F
:101FB000004801404FF6FF7606EA05252A434DF614
:101FC000FF752B400D8906EA05352B434D8806EA3F
:101FD00005352B43FA4DA84202D0FA4DA84208D14C
:101FE0004BF6FF752C408D894FF6FF7606EA851576
:101FF0002C4384808283CD88A0F84050038470BD38
:10200000828B4FF2FF331A408283828B4FF6FF732D
:1020100003EA01231A4382837047F0B50C46154644
:10202000002200210026078C4EF6FF7C07EA0C07F1
:102030000784828B018C4FF6FF7707EA043640F65F
:10204000FF473A404FF6FF7707EA05273A434FF636
:10205000FF7707EA03373A43D94FB8420ED0D94F3A
:10206000B8420BD0B0F1804F08D0D74FB84205D05E
:10207000D64FB84202D0D64FB84206D14DF6FF77C0
:10208000394046F48057394305E047F6FF57394059
:1020900044F48057394382830184F0BD828B4FF62C
:1020A000F3731A408283828B0A4382837047F0B5B0
:1020B0000C461546002200210026078C4FF6FF6CC7
:1020C00007EA0C070784828B018C4FF6FF7707EA3B
:1020D00004264FF60C773A404FF6FF7707EA0317CE
:1020E0002F433A43B64FB8420ED0B64FB8420BD04A
:1020F000B0F1804F08D0B44FB84205D0B34FB842CA
:1021000002D0B34FB84206D14FF6FF57394046F4DC
:102110008077394305E04FF2FF57394044F4807728
:10212000394382830184F0BD028B4FF2FF331A40A2
:102130000283028B4FF6FF7303EA01231A430283E3
:102140007047F0B50C461546002200210026078C8A
:102150004FF6EF7C07EA0C070784028B018C4FF6E1
:10216000FF7707EA041640F6FF473A404FF6FF773D
:1021700007EA03373A434FF6FF7707EA05273A4362
:102180008F4FB8420ED08F4FB8420BD0B0F1804F76
:1021900008D08D4FB84205D08C4FB84202D08C4F3A
:1021A000B84206D14FF6DF77394046F01007394381
:1021B00005E04FF65F77394044F01007394302835A
:1021C0000184F0BD028B4FF6F3731A400283028B39
:1021D0000A4302837047F0B50C46154600220021E1
:1021E000068C4FF6FE773E400684028B018C4FF63C
:1021F0000C7632407E1C06EA03162E433243704EA4
:10220000B0420ED06F4EB0420BD0B0F1804F08D02C
:102210006D4EB04205D06D4EB04202D06C4EB04211
:1022200006D14FF6FD76314044F00106314305E01A
:102230004FF6F576314044F00106314302830184C4
:10224000F0BD70B505460C465D4885420ED05D4830
:1022500085420BD0B5F1804F08D05B48854205D050
:102260005A48854202D05A48854200D100E000BF5A
:10227000208850B92389A28861882846FFF7ABFFE0
:10228000E1882846FFF79EFF25E0208804280AD130
:102290002389A28861882846FFF753FFE1882846F2
:1022A000FFF742FF17E0208808280AD12389A28877
:1022B00061882846FFF7FBFEE1882846FFF7EEFE1F
:1022C00009E02389A28861882846FFF7A6FEE188F5
:1022D0002846FFF795FE70BD2DE9F04105460C46F6
:1022E00000260127608808B9022600E00026A088A1
:1022F000012801D1022700E001272088A0B9238905
:10230000A28861882846FFF766FFE1882846FFF724
:1023100059FF23893A4631462846FFF712FFE188E4
:102320002846FFF701FF13E02389A2886188284629
:10233000FFF707FFE1882846FFF7F6FE23893A46B4
:1023400031462846FFF747FFE1882846FFF73AFF66
:10235000BDE8F0810A884B881A438B881A43CB88E2
:102360001A430B891A434B891A438B891A43A0F8E5
:10237000442070474FF6FF71818000210180C180A9
:102380004180017270470021018041808180C180BD
:10239000018141818181C18170470021018041809B
:1023A000012181800021C1800181704700210180CD
:1023B00041808180C180018141818181704700001D
:1023C000002C01400034014000040040000800409F
:1023D000000C004021B1028842F00102028004E0BA
:1023E00002884FF6FE731A400280704731B1B0F890
:1023F000442042F40042A0F8442005E0B0F8442014
:10240000C2F30E02A0F8442070471AB183890B432F
:10241000838102E083898B43838170478182704787
:1024200041EA0203A0F8483070471AB183890B4390
:10243000838102E083898B438381704701894FF652
:10244000F8721140018170470A46002101894FF658
:102450008F73194011430181704730B504460D4612
:1024600029462046FFF7F0FF208940F00700208131
:1024700030BD2DE9F04104460D4616461F46602D3D
:1024800006D13B46012231462046FFF75AFE05E0C1
:102490003B46012231462046FFF79DFE2946204655
:1024A000FFF7D2FF208940F007002081BDE8F081CE
:1024B00030B50C4600210189C9B24FF6FF7505EA17
:1024C0000325154325432943018130BD2DE9F04102
:1024D00005460E4617469846002443463A4631467E
:1024E0002846FFF7E5FF2C894FF6F870044044F0CA
:1024F00007044FF68F70044044F070042C81BDE84F
:10250000F081F0B504460D4616461F463B4632465E
:1025100029462046FFF7CCFF208940F480402081E7
:10252000F0BD0185828270470A46002101884FF67E
:102530008F731940114301807047F0B50C46154662
:102540001E460021002200230189028B038C4FF6D6
:10255000F877394021434FF6FC473A4040F20117E3
:102560003A434FF6DD773B404FF6FF7707EA061711
:102570002F433B43018102830384F0BD0A460021BF
:10258000018B4FF68F7319401143018370470A4640
:102590000021018B48F6FF7319404FF6FF7303EAE1
:1025A00002231943018370470A460021818B4FF6AD
:1025B0008F7319401143818370470A460021818B34
:1025C00048F6FF7319404FF6FF7303EA02231943DD
:1025D0008183704721B1028842F08002028004E0CA
:1025E00002884FF67F731A400280704721B18288BB
:1025F00042F00402828004E082884FF6FB731A40A6
:102600008280704721B1828842F00802828004E013
:1026100082884FF6F7731A408280704721B1828812
:1026200042F00102828004E082884FF6FE731A4075
:10263000828070470A460021018B4FF6F7731940DC
:102640001143018370470A460021018B4FF2FF734B
:1026500019404FF6FF7303EA0223194301837047C1
:102660000A460021818B4FF6F7731940114381838D
:1026700070470A460021818B4FF2FF7319404FF6D5
:10268000FF7303EA02231943818370470A4600213E
:10269000018B4FF6FB7319401143018370470A46C3
:1026A0000021018B4FF6FF3319404FF6FF7303EA09
:1026B00002231943018370470A460021818B4FF69C
:1026C000FB7319401143818370470A460021818BB7
:1026D0004FF6FF3319404FF6FF7303EA0223194305
:1026E000818370470A460021018B4FF67F731940A2
:1026F0001143018370470A460021018BC1F30E018B
:102700004FF6FF7303EA02231943018370470A4619
:102710000021818B4FF67F731940114381837047ED
:102720000A460021818BC1F30E014FF6FF7303EAC5
:1027300002231943818370470A460021018C4FF61A
:10274000FD7319401143018470470A460021018C32
:102750004FF6F77319401143018470470A46002170
:10276000018C4FF6DF7319404FF6FF7303EA021333
:102770001943018470470A460021018C4FF67F738C
:1027800019404FF6FF7303EA02131943018470479F
:102790000A460021018C4FF6FF5319404FF6FF7394
:1027A00003EA02231943018470470A460021018C81
:1027B0004FF2FF7319404FF6FF7303EA02231943E8
:1027C000018470470A460021018C4DF6FF731940C1
:1027D0004FF6FF7303EA023319430184704730B5A3
:1027E000002301248C40A3B2048C9C430484048CF9
:1027F00002FA01F5ADB22C43048430BD30B500239C
:1028000004248C40A3B2048C9C430484048C02FAFC
:1028100001F5ADB22C43048430BD70B503460020F1
:1028200000241846183001258D40ACB21D8CA543FC
:102830001D8409B1082909D100EB6100056825F064
:10284000700505600568154305600EE00D1FC5F3B2
:102850004E052844056825F4E045056005684FF6F7
:10286000FF7606EA02263543056070BD21B1028875
:1028700042F00202028004E002884FF6FD731A4023
:102880000280704721B1028842F00402028004E015
:1028900002884FF6FB731A400280704721B182888C
:1028A00042F08002828004E082884FF67F731A40F3
:1028B0008280704702884FF6F7731A4002800288C0
:1028C0000A430280704782884FF68F731A408280D5
:1028D00082880A438280704702894FF6F8731A4053
:1028E000028102890A430281704702894FF67F7391
:1028F0001A40028102890A4302817047818470472D
:10290000818570478186704701877047818770474E
:10291000A0F84010704702884FF6FF431A4002802B
:1029200002880A43028070470146888E704701463C
:10293000088F70470146888F70470146B1F8400004
:1029400070470146888C70470146088D70470246E3
:102950000020138A0B400BB1012000E000207047DB
:10296000CA430282704730B502460020002300248B
:10297000158A05EA0103958905EA010413B10CB132
:10298000012000E0002030BDCA43028270470000F1
:1029900010B50446FB48844209D101218803FFF7A2
:1029A0009FF800214FF48040FFF79AF832E0F64894
:1029B000844209D101214804FFF79FF800214FF418
:1029C0000030FFF79AF825E0F048844209D1012150
:1029D0008804FFF792F800214FF48020FFF78DF86C
:1029E00018E0EB48844209D10121C804FFF785F8BB
:1029F00000214FF40020FFF780F80BE0E548844207
:102A000008D101210805FFF778F800214FF4801064
:102A1000FFF773F810BD2DE9F04786B005460E4666
:102A20000024A24600BFA1460027B08900B100BF24
:102A30002F462C8A4CF6FF700440F08804432C8209
:102A4000AC894EF6F3100440B0883189084371898F
:102A500008430443AC81AC8A4FF6FF400440B08980
:102A60000443AC8201A8FEF7B4FFC648874202D1F6
:102A7000DDF810A001E0DDF80CA0A88900F400400A
:102A800040B10AEBCA0000EB0A1031684900B0FB04
:102A9000F1F807E00AEBCA0000EB0A103168890080
:102AA000B0FBF1F86420B8FBF0F0040120096421C8
:102AB00001FB1089A88900F4004040B1322000EBEE
:102AC000C900B0FBF1F000F00700044308E0322039
:102AD00000EB09106421B0FBF1F000F00F0004439B
:102AE0002C8106B0BDE8F0874FF41651016000213B
:102AF0008180C18001810C21418100218181704749
:102B000010B502460020108A4FF2FF0318400B88D0
:102B10004C8823438C882343CC882343184310825A
:102B200010BD0021018041808180C180704721B1AA
:102B3000828942F40052828104E082894DF6FF735B
:102B40001A4082817047F0B5034600240026002514
:102B5000002040F66A17B94200D100BF1846C1F301
:102B6000421401F01F06012707FA06F5012C01D1D6
:102B70000C3004E0022C01D1103000E014301AB106
:102B800007682F43076002E00768AF430760F0BDA6
:102B90001AB1838A0B43838202E0838A8B43838248
:102BA0007047028A4FF6F0731A400282028A0A4383
:102BB0000282704782894FF2FF731A4082818289B4
:102BC0000A438281704721B1828942F002028281E8
:102BD00004E082894FF6FD731A4082817047028AB1
:102BE0004FF6DF731A400282028A0A43028270475C
:102BF00021B1028A42F48042028204E0028A4BF64A
:102C0000FF731A4002827047C1F308028280704746
:102C100001468888C0F308007047818941F00101AE
:102C200081817047028BD2B20283028B42EA012279
:102C300002837047028B02F47F420283028B0A43B5
:102C40000283704721B1828A42F02002828204E02E
:102C5000828A4FF6DF731A408282704721B1828ADE
:102C600042F01002828204E0828A4FF6EF731A402B
:102C70008282704721B1828A42F00802828204E097
:102C8000828A4FF6F7731A408282704721B1828997
:102C900042F40042828103E08289C2F30E02828103
:102CA000704721B1828A42F40062828204E0828A03
:102CB0004FF2FF731A4082827047828A4FF6FB738D
:102CC0001A408282828A0A438282704721B1828AB4
:102CD00042F00202828204E0828A4FF6FD731A40BB
:102CE0008282704702460020B1F5007F00D100BF0C
:102CF00013880B400BB1012000E00020704701F465
:102D00000072B2F5007F00D100BFCA430280704755
:102D100070B50246002400230025002040F66A1604
:102D2000B14200D100BFC1F3421501F01F030126DB
:102D300006FA03F3012D02D19689334006E0022DF5
:102D400002D1168A334001E0968A33400C120126E4
:102D500006FA04F41688344013B10CB1012000E0E7
:102D6000002070BD10B50022002340F66A14A14275
:102D700000D100BF0A1201249440A3B2DC430480B6
:102D800010BD0000003801400044004000480040F1
:102D9000004C00400050004070B504460D46E1B2C2
:102DA0004848FFF731FF00BF40214648FFF79AFF30
:102DB0000028F9D0204670BD42F2107000F090FA61
:102DC00001F0FAF90220404908700120487100F032
:102DD00093FA00F03AFB00F0D0FA00F0B0FA00F0FD
:102DE0004AFB00F09CFA00F019FB00F05DFD01F0D9
:102DF000C1FA00F0A1F900F0DFF842F2107000F023
:102E00006FFA00F079F842F2107000F069FA00F001
:102E10005BFF42F2107000F063FA01F055F942F2E4
:102E2000107000F05DFA00F0F1F842F2107000F05E
:102E300057FA00F08CFC44E001F0E3F900F001FAED
:102E400001F0E5FA01F06CFB00F0E8F901F04AFA54
:102E50001E480088012834D11D480078312807D148
:102E60000120194908704FF4FA701A49088025E0CA
:102E700017480078322807D10120134908704FF411
:102E800048701449088019E011480078332807D1A8
:102E900001200D4908704FF47A700E4908800DE04A
:102EA0000B480078302806D101200749087000201F
:102EB0000849088002E00220034908700020034905
:102EC0000880B9E7004800406A01002004010020A2
:102ED00008010020060100200120054948707047C4
:102EE00010B500F095FF80210248FFF74DFD10BDA1
:102EF00050010020002C014000B585B0012148029E
:102F0000FEF7D4FD8248FDF76BFA6846FDF7B2FA8A
:102F10000020009001208DF804008DF805004FF48A
:102F2000602002900020039005208DF81000694673
:102F30007748FDF77CFA0020FEF71CFD01231A46B6
:102F400000217348FDF70BFB01230222194670484C
:102F5000FDF705FB0123032202216D48FDF7FFFA6F
:102F60000123042203216A48FDF7F9FA012305220F
:102F700008216748FDF7F3FA01216548FDF783FA58
:102F800001216348FDF78AFA6148FDF79EFA00BF08
:102F90005F48FDF79FFA0028FAD15D48FDF7A4FAD3
:102FA00000BF5B48FDF7A5FA0028FAD10121584877
:102FB000FDF7A9FA05B000BD00B58BB001210846A8
:102FC000FEF767FD5348FEF72BF951484C3000904F
:102FD00051480190002002900520039000200490A9
:102FE00080200590400006908000079020200890E7
:102FF0000002099000200A9069464648FEF7B2F99F
:1030000001214448FEF7D9F90BB000BD30B5424864
:1030100080884249424A127821F812003E4841888D
:1030200040483F4A127820F812103B4800883E4939
:103030003B4A127821F8120039480078401C384980
:10304000087008460078402801DB002008703748E7
:103050008078E0B900210022002300200DE02F4CF1
:1030600034F8104021442F4C34F8104022442E4CA8
:1030700034F810402344441CE0B24028EFDB8C09B4
:103080002B4DEC6194092C629C09AC6100BF30BDF2
:103090002148008826498969401A19302449486026
:1030A0000846006A1C494988401A2149C8600846F8
:1030B000C06919498988401A1D4988601648C08826
:1030C00048611548008908610846406A0968484314
:1030D00081121748806A164A5268504301EBA020BB
:1030E00013490860704710B511480068002802DBDA
:1030F0000F48006802E00E48006840420D49098808
:10310000884204DD00F084FE00200849087210BDEA
:103110000024014008000240740100207E010020CC
:103120000C010020FE0100207E0200206A01002028
:10313000940000200A01002000B589B014208DF809
:10314000040001208DF8050002208DF80600012002
:103150008DF8070001A8FDF7DAF801214806FEF70F
:10316000B2FC5A48FDF764FB06A8FDF785FC002079
:103170008DF81E008DF81F008DF820008DF82100BD
:103180008DF822008DF823008DF81A008DF81B00B1
:103190000E208DF81C0007208DF81D000320ADF8CF
:1031A000180006A94948FDF75CFB00208DF81200C5
:1031B0008DF8130001208DF8140045480068C0F315
:1031C0004F30ADF8080042480088042101EBC000F0
:1031D00080B2ADF80A004FF6FF70ADF80C00C01FCA
:1031E000ADF80E000020ADF8100001208DF815009C
:1031F00002A8FDF7C0FB002036490860344840684B
:103200004860002048720420087208208872012259
:1032100002212E48FDF7AEFE09B000BD00202C496A
:10322000097E01290CD10021294A117600BF05E051
:10323000274910310A5C0A54411CC8B20828F7DB40
:10324000704710B500242448008A012821D1AA2003
:103250001F4908721F211E484172122181723F21AD
:10326000C172652101734021417318218173FF21CF
:10327000C17300BF07E016480830015D15480B30E8
:103280000155601CC4B2082CF5DB12490F48FDF74C
:1032900061FC10BD10B5002400210C48FDF7D2FDE3
:1032A00098B10E4A00210948FDF749FD012008495F
:1032B000087600BF07E009480B30015D0448103074
:1032C0000155601CC4B2082CF5DB10BD0064004041
:1032D000E80000200003002050010020140300201B
:1032E00042F2107105E001E04A1E91B20029FBD1C3
:1032F000401E0028F7D1704708B501211C20FEF7B9
:10330000D5FB0420ADF8000010208DF80300032049
:103310008DF8020069467648FEF70CF908BD08B53D
:103320004FF46040ADF8000004208DF80300032046
:103330008DF8020069466F48FEF7FCF808BD08B535
:103340004FF48050ADF8000018208DF803000320E2
:103350008DF8020069466848FEF7ECF84FF400600B
:10336000ADF8000048208DF8030003208DF802001E
:1033700069466148FEF7DEF808BD08B54FF4806085
:10338000ADF8000018208DF8030003208DF802002E
:1033900069465748FEF7CEF84FF40060ADF80000DC
:1033A00004208DF8030003208DF802006946504880
:1033B000FEF7C0F808BD08B54FF40040ADF80000B6
:1033C00004208DF8030003208DF8020069464A4866
:1033D000FEF7B0F83020ADF8000004208DF80300AF
:1033E00003208DF8020069464148FEF7A3F808BDA6
:1033F00008B56846FEF729F901210803FEF76BF9C5
:10340000E020ADF8000004208DF8030003208DF8C3
:10341000020069463648FEF78DF808BD08B56846D3
:10342000FEF713F901210803FEF755F94FF4407038
:10343000ADF8000018208DF8030003208DF802007D
:1034400069462B48FEF776F808BD08B50F20ADF8A1
:10345000000000208DF8030069462748FEF76AF84F
:103460000120ADF8000000208DF8030069462048D7
:10347000FEF760F808BD08B501212048FEF72BF9DA
:103480004FF4E060ADF8000018208DF80300032031
:103490008DF8020069461848FEF74CF84FF460407A
:1034A000ADF8000018208DF8030003208DF802000D
:1034B00069460F48FEF73EF84FF48050ADF8000023
:1034C00048208DF8030069460948FEF733F808BD27
:1034D00007480C30006800F0040008B9002100E043
:1034E0001021042088400249103108607047000014
:1034F000000C01400010014000080140C00016000F
:1035000001460A8890B2801100F440724AB1B2F5C7
:10351000807F12D0B2F5007F1CD0B2F5407F34D14D
:1035200026E0C2B2764B33F912204A60C2B2C2F131
:10353000FF0233F912208A6028E0C2B2C2F1FF0212
:103540006F4B33F912204A60C2B233F91220524253
:103550008A601BE0C2B26A4B33F9122052424A60C1
:10356000C2B2C2F1FF0233F9122052428A600DE06A
:10357000C2B2C2F1FF02624B33F9122052424A60DA
:10358000C2B233F912208A6000E000BF00BF70476A
:103590000346934201DC104604E08B4201DB0846FF
:1035A00000E0184670470021026822B9426802B95B
:1035B00065E0FF2163E04268002A01DB426801E028
:1035C00042685242D3030268002A01DB026801E02C
:1035D0000268524293FBF2F282604A4B01F1800290
:1035E00053F8222083689A4202DC01F1800211B272
:1035F000444B01F1400253F8222083689A4202DCD6
:1036000001F1400211B23F4B01F1200253F8222098
:1036100083689A4202DC01F1200211B2394B01F1B8
:10362000100253F8222083689A4202DC01F1100252
:1036300011B2344B01F1080253F8222083689A42F8
:1036400002DC01F1080211B22E4B0A1D53F82220B0
:1036500083689A4201DC0A1D11B22A4B8A1C53F876
:10366000222083689A4201DC8A1C11B2254B4A1C35
:1036700053F8222083689A4201DC4A1C11B2426846
:10368000002A08DD0268002A01DDC1600DE0C1F5F5
:103690000072C26009E00268002A03DDC1F58062A1
:1036A000C26002E001F50072C260C268002A03DA5B
:1036B000C26802F58062C260C2689201C26070474F
:1036C00030B503460BB9002030BD00219A0F9B0096
:1036D000012A01D9491C521A0F240DE04900920019
:1036E00002EB93720D46012000EB45059B00AA42B8
:1036F00001D3521B491C641E002CEFD10846E3E79E
:10370000385600083858000810B50446D4E90001BE
:10371000401A2062A16AA068884206D1216A6069C5
:103720004843E16A01EBE03000E0E06A6062606A11
:10373000E062216A20694843616A01EBE030A062DF
:10374000D4E90612A06AFFF723FFA06010BD42F67D
:10375000E0600B49086140F22440486141F23E704C
:1037600088610020C86142F22830064908614FF4A0
:103770005C70486141F23E7088610020C86170470A
:10378000340000206400002010B54348007802286F
:1037900041D142484069B0F5AF7F0EDC00203E4980
:1037A00088700872C8803E494860086008624862B4
:1037B0008862C8628860C86011E00120364988705C
:1037C00036484069A0F5967035490860084600689B
:1037D00040F6C411884202DB0846314908602E4891
:1037E000C07830B92C488078012802D12A49087263
:1037F0000CE02948C078012803D1274880780128A7
:1038000004D000F005FB002023490872224880788C
:103810002149C8703FE02348008801280EDA0020C3
:103820001D4988700872C8801D4948600860086298
:1038300048628862C8628860C86011E00120164949
:10384000887016484069A0F59670154908600846CA
:10385000006840F6C411884202DB0846104908603F
:103860000D48C07830B90C488078012802D10A4947
:1038700008720CE00848C078012803D10648807817
:10388000012804D000F0C4FA00200349087202485D
:1038900080780149C87010BD6A01002094000020A2
:1038A00034000020060100200420A54981F82000F2
:1038B000084690F82000A34991FBF0F0A049C861A8
:1038C000704710B54FF400519F48FDF7C6FE012820
:1038D00002D19B49087002E00020994908704FF41A
:1038E00080419948FDF7B9FE012802D194494870FA
:1038F00002E00020924948704FF400419248FDF7E1
:10390000ACFE012802D18E49887002E000208C496B
:1039100088708B4800788A49497800EB41008849D3
:10392000897800EB81008649C8708848007A0128B0
:103930007ED10846C078097988427AD08048C0781C
:10394000072853D2DFE800F052112B1E450438003F
:103950007E484079012801D100F0E2FA7B484079A5
:10396000022801D100F078FB46E078484079012830
:1039700001D100F009FB75484079022801D100F01F
:1039800067FA39E071484079012801D100F030FB35
:103990006E484079022801D100F08EFA2CE06B4885
:1039A0004079012801D100F057FB6848407902288E
:1039B00001D100F0B5FA1FE064484079012801D137
:1039C00000F046FA61484079022801D100F0DCFAA3
:1039D00012E05E484079012801D100F06DFA5B48A1
:1039E0004079022801D100F003FB05E000F010FA55
:1039F00000205349488400BF00BF5148C08A544941
:103A00000988484381124E48808A524A128850439E
:103A100001EBA0204A49C8820846C069C98AB0FBA8
:103A2000F1F0474948840846808C4949098801E0FB
:103A300081E00DE0484381124148408C454A12889C
:103A4000504301EBA0203E4988840020888272E028
:103A50003B48C0783A49097988426CD13848808A15
:103A6000401C374988820846808AB0F5FA5F62DBDD
:103A700000208882888400F0CBF90020304908615A
:103A800081F821000846C078072853D2DFE800F00B
:103A900052112B1E450438002C484079012801D1D1
:103AA00000F03EFA29484079022801D100F0D4FA0A
:103AB00040E026484079012801D100F065FA23480A
:103AC0004079022801D100F0C3F933E01F48407962
:103AD000012801D100F08CFA1C484079022801D15C
:103AE00000F0EAF926E019484079012801D100F0F8
:103AF000B3FA16484079022801D100F011FA19E012
:103B000012484079012801D100F0A2F90F4840790C
:103B1000022801D100F038FA0CE00C484079012865
:103B200001D100F0C9F909484079022801D100F01B
:103B30005FFA00BF00BF0248C0780149087110BD9C
:103B4000C0000020C0D40100001001406A01002024
:103B5000100100200E01002010B5FFF799FAFFF7C1
:103B6000B0FE4C48807808B9FFF750FA4A48007810
:103B7000401C4949087008460078182879DD002063
:103B80000870FFF701FE4548008A454948824348CE
:103B90000088088243488088088442480088C88397
:103BA0004148808C3F4948600846FFF7ADFD3D48DD
:103BB000C0683E490988484381123A4880683C4AB7
:103BC0001288504301EBA0203649C8603348406951
:103BD000142190FBF1F000F59670364908602F48EB
:103BE000006848600846FFF78FFD3248C0682F49DB
:103BF0000988484381122F4880682D4A1288504313
:103C000001EBA0202B49C8602248007801280FD181
:103C1000294800884004000C28490880084600888C
:103C200040F6C411884224DB08462449088020E07D
:103C30001848007802281CD11E48C0681949C96874
:103C400088420BDD174880891C4908801548C068E8
:103C5000184948621348C068C8620AE0154880895C
:103C6000164908801348C0680E4948621148C06868
:103C7000C862FFF738FA0C48818C1148FEF746FEFF
:103C80000E4801880E48FEF743FE01210D48FEF75D
:103C900067FE10BD6A010020500100209400002042
:103CA0002801002034000020C00000201201002064
:103CB00014010020640000200601002016010020ED
:103CC00000080040002C014000B58DB00121C80261
:103CD000FDF7ECFE0020ADF82800ADF82A0041F217
:103CE0006F70ADF82C000020ADF82E008DF830007C
:103CF0000AA9F348FEF712F80020ADF818000120D9
:103D0000ADF81A000420ADF81C000020ADF81E002C
:103D1000ADF82000ADF822004FF48070ADF824001B
:103D20004000ADF8260006A9E548FEF734F806A9DC
:103D3000E348FEF772F806A9E148FEF7BBF8082150
:103D4000DF48FEF777FC0821DD48FEF77CFC082100
:103D5000DB48FEF785FC4FF40060ADF8080040102A
:103D6000ADF80A000020ADF80C006A20ADF80E0096
:103D70004FF48050ADF810000020ADF812004FF461
:103D80008040ADF8140002A9CD48FEF7E3FA802187
:103D9000CB48FEF7F9FD01228021C948FEF735FB2B
:103DA0000121C748FEF7DCFD0121C548FEF7ECFD07
:103DB00001221146C248FEF728FB0121C048FEF748
:103DC00009FB0121BE48FEF711FB4FF4A060FCF790
:103DD00099FA18208DF8040000208DF805008DF860
:103DE000060001208DF8070001A8FCF790FA1920C1
:103DF0008DF8040001208DF8050000208DF80600E4
:103E000001208DF8070001A8FCF781FA0DB000BD74
:103E100010B500221146AA48FEF7E1FC0022114627
:103E2000A748FEF7EBFC00220421A548FEF7D7FCCB
:103E300000220421A248FEF7E1FC00220821A0484C
:103E4000FEF7CDFC002208219D48FEF7D7FC10BDEF
:103E500010B5602200219A48FEF7DFFC0122002104
:103E60009748FEF7BCFC042200219548FEF7C6FCEB
:103E7000602204219248FEF7D0FC012204219048E0
:103E8000FEF7ADFC042211468D48FEF7B7FC002278
:103E900008218B48FEF7A3FC002208218848FEF782
:103EA000ADFC8848008881B28548FEF72BFD0021D3
:103EB0008348FEF729FD10BD10B56022002180481F
:103EC000FEF7ABFC012200217D48FEF788FC0422AE
:103ED00000217B48FEF792FC002204217848FEF77F
:103EE0007EFC002204217648FEF788FC602208212F
:103EF0007348FEF792FC012208217148FEF76FFC1F
:103F0000042208216E48FEF779FC6E48008881B2D1
:103F10006B48FEF7F7FC00216948FEF7F7FC10BD7F
:103F200010B5002211466648FEF759FC00221146E2
:103F30006348FEF763FC602204216148FEF76DFCD4
:103F4000012204215E48FEF74AFC042211465C4827
:103F5000FEF754FC602208215948FEF75EFC01225E
:103F600008215748FEF73BFC042208215448FEF77D
:103F700045FC5448008881B25148FEF7C5FC002139
:103F80004F48FEF7C3FC10BD10B5602200214C481D
:103F9000FEF743FC012200214948FEF720FC0422E1
:103FA00000214748FEF72AFC602204214448FEF71E
:103FB00034FC012204214248FEF711FC0422114680
:103FC0003F48FEF71BFC002208213D48FEF707FC96
:103FD000002208213A48FEF711FC00213848FEF77C
:103FE00091FC3848008881B23548FEF78DFC10BD41
:103FF00010B5602200213248FEF70FFC012200219B
:104000002F48FEF7ECFB042200212D48FEF7F6FBBB
:10401000002204212A48FEF7E2FB0022042128485E
:10402000FEF7ECFB602208212548FEF7F6FB012293
:1040300008212348FEF7D3FB042208212048FEF77D
:10404000DDFB00211E48FEF75DFC1E48008881B2A2
:104050001B48FEF75BFC10BD10B500221146184846
:10406000FEF7BDFB002211461548FEF7C7FB602294
:1040700004211348FEF7D1FB012204211048FEF76A
:10408000AEFB042211460E48FEF7B8FB6022082161
:104090000B48FEF7C2FB012208210948FEF79FFBEF
:1040A000042208210648FEF7A9FB00210448FEF778
:1040B0002BFC0448008881B20148FEF727FC10BDA4
:1040C000002C01401601002000B587B0012104201A
:1040D000FDF7F9FC2E48006844F25061B0FBF1F0A6
:1040E000401E80B2ADF814000020ADF81000ADF80D
:1040F0001600ADF8120004A92648FDF70FFE602057
:10410000ADF800000120ADF802006420ADF8060013
:104110000020ADF8080069461E48FDF73CFE082166
:104120001C48FEF787FA0120ADF802006420ADF8C4
:10413000060069461748FDF770FE08211548FEF78E
:1041400082FA0120ADF802006420ADF8060069464D
:104150001048FDF7AFFE08210E48FEF781FA012056
:10416000ADF802006420ADF8060069460948FDF785
:10417000ECFE08210748FEF77CFA01210548FEF70E
:1041800029FA01210348FEF725F907B000BD000018
:10419000000000200008004010B5002807DA0A07D8
:1041A000140E704A00F00F031B1FD45403E00A07DB
:1041B000130E6D4A135410BD10B56C48006864218D
:1041C000B0FBF1F4B4F1807F01D3012011E024F0C1
:1041D0007F40401E4FF0E02148610F214FF0FF303B
:1041E000FFF7DAFF00204FF0E02188610720086127
:1041F000002008B100BFFEE70021481EFFF7CCFFFA
:1042000010BD10B55A48407801286AD1002058499D
:104210004870012088700846C078401CC0B2C87041
:104220000A2803DB0020C870012008715048C07ABA
:10423000401CC0B24E49C872322803DB0020C8724D
:10424000012008734A48C079401CC0B24849C8716F
:104250001E2803DB0020C871012008724448407A00
:10426000401CC0B242494872282803DB0020487233
:10427000012088723E484079401CC0B23C494871D8
:10428000142803DB00204871012088713848C08958
:10429000401C80B23649C881642806DBFFF718F954
:1042A00000203349C881012008823148408A401CDF
:1042B00080B22F494882B0F57A7F03DB0020488224
:1042C000012088822A48C08A401C80B22849C882BE
:1042D00041F27071884204DB00202549C882012028
:1042E000088310BD22488078012802D1002020498F
:1042F00088701F480079012802D100201C490871EC
:104300001B48007B012802D1002019490873184876
:10431000807A012802D10020154988721448007A59
:10432000012802D100201249087211488079012821
:1043300002D100200E4988710D48008A012802D15F
:1043400000200B4908820A48808A012802D10020F7
:10435000074988820648008B012802D100200449C1
:104360000883704718ED00E000E400E00000002042
:104370005001002000B585B001218804FDF7A3FBA2
:1043800027208DF8000003208DF801008DF8020031
:1043900001208DF803006846FBF7B9FFD548FEF70A
:1043A000F7FA4FF4E13001900020ADF80800ADF8C5
:1043B0000A00ADF80C00ADF810000C20ADF80E00AE
:1043C00001A9CC48FEF727FB012240F22551C9483C
:1043D000FEF7B9FB0121C748FEF7A9FB05B000BDF8
:1043E00070B504460D46C348008800BF2178C14817
:1043F000FEF70AFC00BFBF48008800F0400000281C
:10440000F9D0641C681EC5B2002DEFD170BD2DE936
:10441000F04F97B0B848007B01287ED1AA20B74959
:1044200008700846408A001248700846807C8870F0
:104430000846C08B0012C8700846807F0871B048DB
:1044400040794871AE48007A8871CC20C871AC4878
:104450004079012801D1824601E04FF0FF3AA94995
:10446000C86800F077F9834600F082F904460D46EB
:10447000A549C86800F06EF9834600F079F9064650
:104480000F46A249886800F065F9834600F070F98C
:10449000804689469D49086900F05CF9834600F032
:1044A00067F9CDE914019949C86800F053F98346CA
:1044B00000F05EF9CDE912019449086800F04AF96C
:1044C000834600F055F9CDE910018C49088C00F0C5
:1044D0004AF9834600F04CF9CDE90889CDE90A672D
:1044E000CDE90C45CDE90E01DDE91401CDE9060168
:1044F000DDE91201CDE90401DDE91001CDE9020198
:104500007F4800787E494979CDE9001000E004E059
:104510007FA0DDE90E2300F015FC17B0BDE8F08F99
:104520000020764991F8221001290DD10021734A0B
:1045300082F8221000BF05E0704908310A5C0A5475
:10454000411CC8B20828F7DB70470146A1F13002D0
:10455000112A54D2DFE802F00910171E252C333A35
:1045600041485353535353534F000020754A126828
:10457000521C744B1A6042E00120724A1268521CAD
:10458000704B1A603BE002206E4A1268521C6D4B61
:104590001A6034E003206B4A1268521C694B1A609F
:1045A0002DE00420674A1268521C664B1A6026E010
:1045B0000520644A1268521C624B1A601FE00620F4
:1045C000604A1268521C5F4B1A6018E007205D4A6F
:1045D0001268521C5B4B1A6011E00820594A12689D
:1045E000521C584B1A600AE00920564A1268521CA5
:1045F000544B1A6003E00022524B1A6000BF00BF08
:10460000704730B50246002007295DD2DFE801F08F
:104610005C04060F1B2C4200107855E0137803EB66
:1046200083035B005478012505FB04304CE01378CC
:104630006424634354780A2505FB043394780125E8
:1046400005FB043040E013784FF47A7463435478E8
:10465000642505FB043394780A2505FB0433D478DC
:10466000012505FB04302FE0137842F210746343F8
:1046700054784FF47A7505FB04339478642505FB70
:104680000433D4780A2505FB04331479012505FB8E
:10469000043019E013782C4C6343547842F21075BF
:1046A00005FB043394784FF47A7505FB0433D47812
:1046B000642505FB043314790A2505FB043354797A
:1046C000012505FB043000BF00BF30BD10B5002040
:1046D0001E49088040F225510648FEF719FB38B103
:1046E00001201A4908800348FEF792FA1849087019
:1046F00010BD0000004800405001002028010020AB
:104700006A01002064000020340000209400002092
:1047100025342E32662C25642C25642C25342E322B
:10472000662C25342E32662C25342E32662C253408
:104730002E32662C25362E32662C25362E326620F9
:104740000D0A00001C010020A086010004010020C9
:1047500008010020C10F80EAE0700844CA079623D0
:10476000002100F068B896230022114600F063B8DB
:1047700000F0004230F000400AD0C10D01F5607138
:10478000C0F3160042EA0151C208400711437047C6
:1047900000200146704730B50B460146002020221C
:1047A000012409E021FA02F59D4205D303FA02F53E
:1047B000491B04FA02F52844151EA2F10102F1DC9E
:1047C00030BD2DE9F05F0546002092469B468846A5
:1047D0000646814640241BE028464146474622467D
:1047E00000F031FA53465A46C01A914110D311468F
:1047F0001846224600F018FA2D1A67EB01084F46BA
:1048000022460120002100F00FFA17EB00094E416B
:10481000201EA4F10104DFDC484631462A46434607
:10482000BDE8F09F0029A8BF7047401C490008BFA1
:1048300020F00100704710B4B0FA80FC00FA0CF0D0
:1048400050EA010404BF10BC704749B1CCF1200408
:1048500021FA04F411FA0CF118BF01212143084395
:10486000A3EB0C01CB1D4FEA00614FEA102042BFC1
:10487000002010BC704700EBC35010440029A4BFB7
:1048800010BC7047401C490008BF20F0010010BC5C
:1048900070472DE9FE4F804681EA0300C00F0C46A9
:1048A000009021F0004123F00045B8EB0200A9413F
:1048B00005D24046214690461C460B46024623F050
:1048C0000040104347D0270DC7F30A00C3F30A5135
:1048D0000290401A019040286BDAC3F3130040F4B1
:1048E000801B0098924620B10023D2EB030A63EBB1
:1048F0000B0B01985946C0F14002504600F094F964
:1049000006460D4650465946019A00F0ACF910EBA8
:1049100008006141002487EA115284EAE7731A43D0
:1049200040D0009A62B3019A012A4FEA075215DC7F
:10493000001B61EB02014FF0004202EA0752CDE991
:104940000042001C41F5801132462B4600F0ACF9C4
:1049500003B0BDE8F08F40462146F9E7001B61EB4C
:104960000201001C41F5801300185B412018A2F5DC
:10497000001747EB030140EAD570B6196D4111E00D
:104980006D084FEA360645EAC0754FEA0752001B2C
:1049900061EB0201001C41F5801149084FEA30002B
:1049A0000019514132462B4603B0BDE8F04F00F0EC
:1049B0006CB90098012240000023D0EB020263EBA7
:1049C000E073009821464FEAE074B8EB000061EB19
:1049D0000401E9E783F000435BE781F0004158E719
:1049E0002DE9FE4F81EA030404F0004421F0004168
:1049F00000944FF0000B23F0004350EA01045ED016
:104A000052EA03045BD0C3F30A54C1F30A552C44A1
:104A1000A4F2F3340194A0FB0254C1F3130141F456
:104A20008011C3F3130343F4801301FB024400FB22
:104A3000034E840A970A44EA815447EA8357A4FB49
:104A4000076802958D0A05FB07854FEA932C04FB46
:104A50000C542705029D4FEA065847EA1637B5EB76
:104A600008056EEB070C870E920E47EA811742EAA3
:104A70008312A7FB0201B6EB0B0164EB00042B0DC4
:104A800043EA0C335E1844EB1C50DA465146E7FB10
:104A90000201C5F313044FEA0B3343EA14534FEA00
:104AA0000432019C43EA0603A4F10C040294009C26
:104AB000CDE900B400F0F8F803B0BDE8F08F0020B5
:104AC0000146F9E72DE9F04D81EA030404F0004BBB
:104AD00021F0004514464FF0000A23F0004150EA4F
:104AE000050220D054EA01021DD0C5F30A57024640
:104AF000C5F31303C1F31300C1F30A5640F4801544
:104B000043F48013A7EB0608101BD64608F2FD38C5
:104B100073EB050002D308F1010801E092185B4134
:104B2000B8F1000F03DA00200146BDE8F08D002047
:104B30004FF48011064684460EE0171B73EB050701
:104B400005D3121B63EB050306434CEA010C49082D
:104B50004FEA300092185B4150EA0107EDD152EA6A
:104B6000030012D082EA040083EA0501084305D05D
:104B7000101BAB4106D20122002306E000224FF0B9
:104B8000004302E06FF0010253101AEB06004CEBF9
:104B9000085110EB0A0041EB0B01BDE8F04D00F0AD
:104BA00074B8C1F30A52C1F3130140F2FF3341F468
:104BB00080119A4202DA00200146704740F23343E6
:104BC0009A42A2F2334202DC524200F03CB800F0BA
:104BD0002BB8000030B5041E71F1000404DB4FF067
:104BE0000044404264EB0101141E73F1000405DB34
:104BF0001C464FF00043524263EB0403994208BF46
:104C0000904230BD064C074D06E0E06840F00103DD
:104C100094E8070098471034AC42F6D3FBF76AFAE1
:104C2000385C0008585C0008202A04DB203A00FAAF
:104C300002F1002070479140C2F1200320FA03F3F3
:104C4000194390407047202A04DB203A21FA02F0F1
:104C50000021704721FA02F3D040C2F120029140B6
:104C6000084319467047202A06DBCB17203A41FA41
:104C700002F043EAE07306E041FA02F3D040C2F1E9
:104C80002002914008431946704710B5141E73F175
:104C9000000408DA401C41F1000192185B411A43FC
:104CA00001D120F0010010BD2DE9F04D92469B4648
:104CB00011B1B1FA81F202E0B0FA80F220329046EE
:104CC000FFF7B2FF04460F4640EA0A0041EA0B0133
:104CD00053465A46084313D0114653EA010019D0EF
:104CE000C8F140025046FFF7AEFF05460E4650465B
:104CF00059464246FFF798FF084305D0012004E0DB
:104D000020463946BDE8F08D0020054346EAE076AE
:104D10002C4337430A986305E40AA0EB08000022FD
:104D2000FD0A44EA47540A3002D500200146E9E76B
:104D3000010510196941DDE9084500196941BDE81F
:104D4000F04DA2E70FB4054B10B503A9044A029831
:104D500000F0DAF810BC5DF814FB0000992D000893
:104D60002401002002E008C8121F08C1002AFAD15D
:104D700070477047002001E001C1121F002AFBD1DB
:104D8000704700002DE9FF5F82B00021DDE90430AB
:104D9000020DDDF840B0034318D044F61050A2F2E3
:104DA000FF3242431514119801281FD0A5EB0B00C8
:104DB000401C5FEA000A4FF000064E4FDFF83891C2
:104DC000B046504615D5CAF1000413E011980124ED
:104DD0004AA3012801D16FEA0B010298119AC0E998
:104DE0000031C0E9024206B0BDE8F09FCBF10000FF
:104DF000DFE704460021404A491842EB0450CDE960
:104E0000001012E0E00707D032463B4640464946D4
:104E1000FFF7E6FD8046894632463B461046194676
:104E2000FFF7DEFD06460F466410002CEAD1DDE9EF
:104E30000401DDE90023BAF1000F06DAFFF7D0FD27
:104E400042464B46FFF7CCFD05E0FFF73BFE4246EE
:104E50004B46FFF737FE04460E460022284BFFF76D
:104E6000B9FE03D84FF0FF30014607E00022254B82
:104E700020463146FFF70DFDFFF793FE102409E0B1
:104E8000002C0ADB0A220023FFF79BFC039B303235
:104E90001A55641E50EA0102F2D1641C039AC4F14F
:104EA00011031444119A012A03D0012208430DD1A1
:104EB0000AE0084304D000204FF0110B119072E774
:104EC000A3EB0B056D1E0DE05B4504DD4FF000020A
:104ED00005F1010504E003DA4FF00002A5F1010538
:104EE000002AECD002981199C0E90231C0E90045CE
:104EF00079E70000000014400000F03F300000009F
:104F00000000F0430000E03F2DE9FF4F95B09B46C5
:104F10008946064600250FE2252877D1002427463A
:104F2000F84A0121059400E0044316F8013F203BB4
:104F300001FA03F01042F7D130782A2811D06FF02F
:104F40002F033078A0F13002092A16D8059A44F0D0
:104F5000020402EB820203EB42021044761C05902D
:104F6000EFE759F8042B0592002A03DA504244F483
:104F70000054059044F00204761C30782E2816D197
:104F800016F8010F44F004042A280DD06FF02F0208
:104F90003078A0F13003092B09D807EB870302EB27
:104FA0004303C718761CF3E759F8047B761C307866
:104FB0006C280FD006DC4C2817D068280DD06A2842
:104FC00014D104E0742810D07A280FD10DE044F4F5
:104FD00000140AE044F4801401E044F440147278B0
:104FE000824202D104F58014761C761C3078662843
:104FF0000BD013DC582877D009DC002875D0452861
:10500000F6D04628F4D047281AD19DE118E063284D
:1050100035D0642879D0652812D195E1702873D0F5
:1050200008DC6728F1D069286FD06E280DD06F2872
:1050300006D1B5E073282CD0752875D0782874D0A7
:105040005A46179990476D1C75E1C4F30250022827
:1050500009D003280DD0D9F8001004280DD00D6018
:1050600009F1040967E1D9F80010EA17C1E9005213
:10507000F6E7D9F800100D80F2E70D70F0E719F8A7
:10508000041B8DF8001000208DF80100EA46012075
:1050900003E059F804AB4FF0FF3061074FF0000117
:1050A00002D40DE008F101018846B9420FDA8045CB
:1050B000F8DB1AF808100029F4D108E008F1010122
:1050C00088468142FADB1AF808100029F6D10598C3
:1050D0005B46A0EB080721463846179A00F094FA81
:1050E000284400EB080507E04DE029E10DE01AF83F
:1050F000010B5A4617999047B8F10108F7D25B4661
:1051000021463846179A13E142E00A220092C4F37E
:1051100002524FF0000A022A08D059F804CB032AA1
:105120004FEAEC710AD00DE029E02AE009F107010D
:1051300021F00702F2E802C1914609E00FFA8CFC67
:105140004FEAEC71042A03D14FFA8CFC4FEAEC7160
:10515000002907DA0A460021DCF1000C61EB0201AC
:105160002D2202E0220504D52B228DF804200122F5
:1051700003E0E20701D02022F7E7904659E00A2138
:1051800002E010220DE010214FF0000A00910BE028
:1051900010224FF0000A44F004040827009203E0B4
:1051A00008224FF0000A0092C4F30252022A05D0EE
:1051B00059F804CB0021032A08D009E009F10701BE
:1051C00021F00702F2E802C1914605E01FFA8CFCCB
:1051D000042A01D10CF0FF0C4FF00008220728D55B
:1051E000702806D0009B83F0100353EA0A0305D011
:1051F0000EE040228DF80420012208E05CEA010262
:1052000006D030228DF804208DF805000222904649
:10521000009B83F0080353EA0A030AD15CEA010207
:1052200001D1620705D530228DF804204FF0010826
:105230007F1E582804D034A003900EA802900DE0E1
:1052400036A0F9E753466046009AFFF7BAFA84465B
:105250000398825C0298401E029002705CEA010092
:10526000F0D1029806A9081A00F1200A600702D5B9
:1052700024F4803400E00127574502DDA7EB0A0043
:1052800000E0002000EB0A01009005984144401A1C
:105290000590E00306D45B462146179A059800F076
:1052A000B3F90544002706E001A85A46C05D1799E6
:1052B00090476D1C7F1C4745F6DBE0030CD55B4631
:1052C0002146179A059800F09FF9054404E0302024
:1052D0005A46179990476D1C0099481E0090002966
:1052E000F5DC08E0029802995A460078491C0291C0
:1052F000179990476D1CBAF10001AAF1010AF1DC7F
:1053000065E1000009280100303132333435363789
:105310003839616263646566000000003031323301
:1053200034353637383941424344454600000000A1
:1053300000F058F90544761C307800287FF4ECAD75
:1053400019B02846BDE8F08F620700D4062709F19E
:10535000070222F0070CFCE80223E14603F00048B4
:105360005FEA080C02D00FF2702C0DE05FEA045CDB
:1053700002D50FF2682C07E05FEAC47C02D00FF27E
:10538000602C01E0AFF2700C4FF0FF3823F00043C7
:10539000CDF850C065280CD006DC452809D0462839
:1053A0001DD047283DD13DE0662818D067287ED122
:1053B00038E00021112F01DB112000E0781CCDE93D
:1053C000000106A90EA8FFF7DDFCDDE90F010E9A2A
:1053D00003910021009207F1010A04914DE04FF082
:1053E00000400097CDE9011006A90EA8FFF7CAFCFE
:1053F000DDE90F0203920E9B11990022DDF80CA04B
:105400000093049211B9791C00EB010AB7EB0A0072
:1054100004D4C0F1FF3007F1010A0490AAEB0700A1
:10542000019044E0012F00DA01270021112F01DD56
:10543000112000E03846CDE9000106A90EA8FFF7CB
:10544000A1FCDDE90F010E9A039100210491009265
:10545000BA4621070CD40399514500DA8A46BAF1BD
:10546000010F05DD009AAAF10101515C302908D035
:10547000B84202DA10F1040F06DA0121CDE9011079
:1054800015E0AAF10101E9E7002805DC04990144CF
:105490000491AAEB000102E0411C514500DD8A465F
:1054A0000499401A401C01904FF0004002902007E0
:1054B00004D40198504501DBCDF8048000208DF81C
:1054C0004F0002980DF14F07B0F1004F25D02B206F
:1054D0000E9002984FF0020800280CDA4042029029
:1054E0002D200E9007E00A210298FFF754F9303181
:1054F000029007F8011DB8F10001A8F10108F2DCE3
:1055000002980028EFD1791E0E980870307800F0CC
:10551000200040F0450007F8020D12A8C01B00F162
:1055200007081498007800B1012000EB0A010198E7
:1055300001EBE07105984144401A401E0590E003DC
:1055400006D45B462146179A059800F05DF805449D
:105550001498007818B15A46179990476D1CE003CB
:1055600024D55B462146179A059800F04DF805446E
:105570001CE00498002807DBDDE90301884203DD15
:105580000098405C179901E0179930205A469047DF
:10559000049805F10105401C04900198401E0190FB
:1055A00004D12E205A46179990476D1CBAF100017C
:1055B000AAF1010ADDDC05E017F8010B5A4617993C
:1055C00090476D1CB8F10001A8F10108F4DC5B46BE
:1055D0002146179A0598ABE62D0000002B0000002D
:1055E000200000002DE9F041044600251E46174624
:1055F000880404D405E039462020B0476D1C641EA1
:10560000F9D52846BDE8F0812DE9F0410446002592
:105610001E469046C80301D5302700E020278804A5
:1056200004D505E041463846B0476D1C641EF9D5E7
:105630002846BDE8F08100000000C90092015B022D
:105640002403ED03B6047F0548061107D907A20815
:105650006A09330AFB0AC40B8C0C540D1C0EE30EB2
:10566000AB0F72103A110112C8128F1355141C158A
:10567000E215A8166E173318F918BE19821A471BBF
:105680000B1CCF1C931D571E1A1FDD1F9F2061216D
:105690002322E522A62367242825E825A8266727B4
:1056A0002628E528A329612A1F2BDC2B992C552DB0
:1056B000112ECC2E872F4130FB30B5316E32263380
:1056C000DF3396344D350436BA366F372438D9383F
:1056D0008C39403AF23AA53B563C073DB83D683E0E
:1056E000173FC53F73402141CE417A422543D04305
:1056F0007A442445CD4575461C47C34769480F4940
:10570000B449584AFB4A9D4B3F4CE04C814D204EDA
:10571000BF4E5D4FFB4F97503351CE5168520253ED
:105720009B533254C9546055F5558A561D57B0578E
:105730004258D3586459F359825A0F5B9C5B285CDA
:10574000B35C3E5DC75D4F5ED75E5D5FE35F6860E3
:10575000EB606E61F0617162F1627063EE636C64C4
:10576000E8646365DD655666CF664667BC67326888
:10577000A66819698B69FD696D6ADC6A4A6BB76B4B
:10578000236C8E6CF86C616DC96D306E966EFB6E1D
:105790005E6FC16F22708370E27040719D71F9710C
:1057A0005472AE7207735E73B5730A745F74B27429
:1057B00004755575A575F37541768D76D876227783
:1057C0006B77B377FA773F788478C77809794A7925
:1057D0008979C879057A417A7C7AB67AEE7A267B1D
:1057E0005C7B917BC57BF87B297C597C887CB67C73
:1057F000E37C0E7D397D627D897DB07DD57DFA7D2E
:105800001D7E3E7E5F7E7E7E9C7EB97ED57EEF7E57
:10581000097F217F377F4D7F617F747F867F977FF0
:10582000A67FB47FC17FCD7FD87FE17FE97FF07F06
:10583000F57FF97FFD7FFE7F00000000C9000000BA
:10584000920100005B02000024030000ED03000051
:10585000B6040000800500004906000012070000A1
:10586000A7080000710900003B0A0000050B0000BA
:10587000D00B00009B0C0000660D0000310E0000F4
:10588000FD0E0000C90F000095100000621100001D
:10589000181200002F120000FC120000CA130000B2
:1058A000981400006615000035160000051700006A
:1058B000D4170000A518000075190000471A000051
:1058C000191B0000EB1B0000BE1C0000911D000016
:1058D000651E00003A1F00000F200000E5200000B8
:1058E000BC210000942200006C230000442400002E
:1058F0001E250000F8250000D4260000B027000077
:105900008C2800006A290000492A0000282B00008A
:10591000082C0000EA2C0000CC2D0000AF2E000067
:10592000942F000079300000603100004732000001
:1059300030330000193400000935000071350000D3
:10594000DE360000CD370000BD380000AE39000063
:10595000A03A0000943B00008A3C0000803D00001B
:10596000793E0000723F00006E4000006A41000076
:1059700069420000694300006A4400006E4500006F
:10598000734600007A470000824800008D490000FD
:10599000994A0000A84B0000B84C0000CA4D000016
:1059A000DF4E0000F54F00000E51000028520000AD
:1059B000455300006554000086550000AA560000BB
:1059C000D1570000FA580000255A0000535B000030
:1059D000845C0000B85D0000EE5E000027600000FF
:1059E00063610000A2620000E4630000296500001A
:1059F00071660000BD6700000C6900005E6A00006F
:105A0000B36B00000D6D0000696E0000CA6F0000EE
:105A10002E71000096720000037400007375000080
:105A2000E776000060780000DD7900005F7B000011
:105A3000E57C0000707E0000008000009481000082
:105A40002E830000CD840000718600001A880000BB
:105A5000CA8900007F8B0000398D0000FA8E00009B
:105A6000C19000008F920000639400003D960000FA
:105A70001F980000089A0000F79B0000EF9D0000AF
:105A8000EE9F0000F5A1000004A400001BA600008A
:105A90003BA8000064AA000096AC0000D1AE000054
:105AA00016B1000065B30000BEB5000022B80000CA
:105AB00091BA00000BBD000090BF000022C20000A0
:105AC000C0C400006AC7000022CA0000E7CC000082
:105AD00088CF00009DD200008ED500008ED8000037
