:020000040800F2
:1000000038090020E1020008E9020008EB020008BC
:10001000ED020008EF020008F102000800000000F5
:10002000000000000000000000000000F3020008D3
:10003000F502000800000000F7020008AD240008E7
:10004000FB020008FB020008FB020008FB0200089C
:10005000FB020008FB020008FB020008FB0200088C
:10006000FB020008FB020008FB020008FB0200087C
:10007000FB020008FB020008FB020008FB0200086C
:10008000FB020008FB020008FB020008FB0200085C
:10009000FB020008FB020008FB020008FB0200084C
:1000A000B5240008912F0008FB020008FB0200089D
:1000B000FB020008FB020008FB020008FB0200082C
:1000C000FB020008FB020008FB020008FB0200081C
:1000D000FB020008FB020008FB0200082B3A0008A4
:1000E000FB020008FB020008FB020008DFF80CD04E
:1000F00003F0C4FE0048004711240008380900201E
:100100000CB50020019000906C48006840F48030ED
:100110006A49086000BF6948006800F40030009038
:100120000198401C0190009818B90198B0F5A06F93
:10013000F1D16248006800F4003010B10120009055
:1001400001E0002000900098012843D15C4800683D
:1001500040F010005A4908600846006820F003008B
:1001600008600846006840F0020008605348406894
:10017000524948600846406848600846406840F474
:10018000806048600846406820F47C10486008465B
:10019000406840F4E81048600846006840F080700D
:1001A000086000BF4548006800F000700028F9D0E2
:1001B0004248406820F003004049486008464068D3
:1001C00040F00200486000BF3C48406800F00C006E
:1001D0000828F9D10CBD10B5FFF792FF10BD10B57E
:1001E0003648006840F0010034490860084640681D
:1001F000344908403149486008460068324908409F
:100200002E4908600846006820F4802008600846EF
:10021000406820F4FE0048604FF41F008860FFF73C
:10022000DAFF4FF000602949086010BD10B50021C9
:1002300000200022214B5B6803F00C0121B104294E
:1002400006D0082928D107E0214B224C236027E063
:100250001F4B204C236023E0184B5B6803F47010A5
:10026000164B5B6803F48032022303EB904022B903
:10027000194B4343174C23600DE0104B5B6803F4AC
:10028000003323B1144B4343124C236003E0104B63
:100290004343104C236003E00D4B0E4C236000BF22
:1002A00000BF064B5B68C3F303130C4CE15C094BC6
:1002B0001B68CB40074C236010BD000000100240BB
:1002C000002002400000FFF8FFFFF6FE08ED00E00E
:1002D00000127A000000002000093D000400002008
:1002E0000648804706480047FEE7FEE7FEE7FEE7D0
:1002F000FEE7FEE7FEE7FEE7FEE7FEE7DF010008B8
:10030000ED00000831490143314A1160704770B572
:10031000002100230F22C47804B32D4C246804F478
:10032000E064C4F5E064210AC1F10403CA404478E2
:1003300004FA03F18478144021430901254C06781E
:10034000A155047804F01F050124AC4005786D1117
:10035000AD0005F1E025C5F8004109E0047804F09E
:100360001F050124AC401C4D0678761145F8264047
:1003700070BD1A4A0A400243154B1B1F1A60704792
:1003800039B1134A121D12680243114B1B1D1A602A
:1003900006E00F4A121D126882430D4B1B1D1A60A6
:1003A0007047042808D14FF0E021096941F00401A9
:1003B0004FF0E022116107E04FF0E021096921F0E0
:1003C00004014FF0E0221161704700000000FA05BF
:1003D0000CED00E000E400E080E100E080FFFF1FA2
:1003E00010B50446FA48844208D10121401500F0B6
:1003F0007FFE0021601500F07BFE17E0F548844287
:1004000008D10121001500F073FE0021201500F035
:100410006FFE0BE0F048844208D10121C80300F0D0
:1004200067FE00214FF4004000F062FE10BD30B5C1
:100430000246002000235068E84C20400D790C68EB
:1004400044EA0524204350609068E54C2040D1E9FF
:1004500002542C434D7944EA450420439060D06A0D
:1004600020F470000C7C641EE4B2234340EA035085
:10047000D06230BD00210160017141718160C160B5
:1004800001210174704721B1826842F0010282604B
:1004900003E0826822F001028260704721B1826825
:1004A00042F48072826003E0826822F4807282608B
:1004B000704710B50023CBB21AB144681C434460A6
:1004C00002E044689C43446010BD816841F008012B
:1004D00081607047014600208A6802F008020AB174
:1004E000012000E000207047816841F00401816034
:1004F0007047014600208A6802F004020AB1012018
:1005000000E00020704721B1826842F4A0028260BE
:1005100003E0826822F4A002826070470146002056
:100520008A6802F480020AB1012000E000207047CE
:1005300010B50A4600210023416821F46041531E92
:1005400041EA4331416010BD21B1426842F400628A
:10055000426003E0426822F4006242607047F0B5F6
:1005600004460D4600200021092D11DDE068A5F1AB
:100570000A0606EB4607072606FA07F18843A5F1A7
:100580000A0606EB460603FA06F10843E0600CE0B3
:10059000206905EB4507072606FA07F1884305EBB6
:1005A000450603FA06F108432061072A0FDA606B5B
:1005B000561E06EB86071F2606FA07F18843561ECD
:1005C00006EB860605FA06F10843606322E00D2A71
:1005D0000FDA206BD61F06EB86071F2606FA07F1F7
:1005E0008843D61F06EB860605FA06F1084320630A
:1005F00010E0E06AA2F10D0606EB86071F2606FA58
:1006000007F18843A2F10D0606EB860605FA06F10E
:100610000843E062F0BD21B1826842F4801282603A
:1006200003E0826822F48012826070470146C86C41
:1006300080B2704766484C300068704721B142680C
:1006400042F48062426003E0426822F480624260C9
:10065000704721B1426842F48052426003E0426830
:1006600022F48052426070470A460021816821F4DA
:10067000E04111438160704721B1826842F4004239
:10068000826003E0826822F400428260704721B1F8
:10069000826842F40212826003E0826822F402124D
:1006A00082607047014600208A6802F400120AB195
:1006B000012000E000207047F0B5044615460020F8
:1006C00000220026092911DDE068A1F10A0707EBE5
:1006D000470C072707FA0CF29043A1F10A0707EB32
:1006E000470703FA07F21043E0600CE0206901EBD2
:1006F000410C072707FA0CF2904301EB410703FA7C
:1007000007F210432061A06BC0F30156EF1C06F105
:10071000010CA7EB0C0707EB870C1F2707FA0CF25D
:100720009043EF1C06F1010CA7EB0C0707EB8707C2
:1007300001FA07F21043A063F0BD10B50A4600218C
:100740000023816B21F44011531E41EA0351816360
:1007500010BD08B5002300930090009B0B4400934C
:10076000009B1A6008BD08B5024600200090009268
:1007700001F12800009B184400900098006880B2A6
:1007800008BD0A4600214168164B194011434160DB
:1007900070474162826270470A460021416821F039
:1007A0001F0111434160704740B109490831096890
:1007B00041F40001064A0832116007E0044908319B
:1007C000096821F40001024A0832116070470000F4
:1007D0000024014000280140003C0140FFFEF0FFE2
:1007E000FDF7F1FFFFFD3FFF0246002013680B40BD
:1007F0000BB1012000E000207047CA43026070473F
:1008000070B502460020002300240B125568CEB2BA
:1008100005EA060415681D4015B10CB1012000E081
:10082000002070BD00220A12D3430360704700000D
:1008300001684FF6FE7211400160002101604160C5
:100840008160C1608D49884208D18C490839496866
:1008500041F00F01894A083A51608AE08749143112
:10086000884208D185490839496841F0F001834A36
:10087000083A51607DE081492831884208D17F499A
:100880000839496841F470617C4A083A516070E067
:100890007A493C31884208D178490839496841F49D
:1008A0007041764A083A516063E074495031884299
:1008B00008D172490839496841F470216F4A083AF1
:1008C000516056E06D496431884208D16B4908395E
:1008D000496841F47001694A083A516049E0674942
:1008E0007831884208D165490839496841F070611A
:1008F000624A083A51603CE06149884206D1011FD2
:10090000096841F00F01021F116032E05C491431A7
:10091000884208D15A49091F096841F0F001584A34
:10092000121F116025E056492831884208D15449E8
:10093000091F096841F47061514A121F116018E0E3
:100940004F493C31884208D14D49091F096841F49B
:1009500070414B4A121F11600BE0494950318842E7
:1009600007D14749091F096841F47021444A121F01
:100970001160704710B50022026847F6F0739A4381
:100980000C6A8B6823430C6923434C6923438C69AD
:100990002343CC6923434C6A23438C6A23431A4381
:1009A0000260CB6843600B6883604B68C36010BD16
:1009B0000021016041608160C1600161416181612C
:1009C000C161016241628162704721B1026842F0F7
:1009D0000102026004E002684FF6FE731A400260F2
:1009E00070471AB103680B43036002E003688B434E
:1009F00003607047416070470146486880B27047A5
:100A000001460020002201F080531BB11C4B083B23
:100A10001A6802E0194B083B1A6802EA01030BB19D
:100A2000012000E00020704700F0805119B1144906
:100A3000091F086002E01149083948607047014603
:100A40000020002201F080531BB10D4B083B1A68B7
:100A500002E00A4B083B1A6802EA01030BB10120CD
:100A600000E00020704700F0805119B10449091FCF
:100A7000086002E0014908394860704708000240F8
:100A80000804024010B50446CC48844208D1012134
:100A9000042000F02DFB0021042000F029FB46E09B
:100AA000C748844208D10121082000F021FB002121
:100AB000082000F01DFB3AE0C248844208D1012121
:100AC000102000F015FB0021102000F011FB2EE09B
:100AD000BD48844208D10121202000F009FB0021FB
:100AE000202000F005FB22E0B848844208D1012113
:100AF000402000F0FDFA0021402000F0F9FA16E055
:100B0000B348844208D10121802000F0F1FA00218D
:100B1000802000F0EDFA0AE0AE48844207D10121BE
:100B2000801500F0E5FA0021A01500F0E1FA10BDF3
:100B300010B50121084600F0DBFA0021012000F089
:100B4000D7FA10BD2DE9F04102460025002600200D
:100B500000230024002791F803C00CF00F0591F842
:100B600003C00CF0100CBCF1000F03D091F802C0D0
:100B70004CEA050591F800C0BCF1000F31D01468B3
:100B800000202BE04FF0010C0CFA00F3B1F800C08C
:100B90000CEA03069E4220D183004FF00F0C0CFAA2
:100BA00003F7BC4305FA03FC4CEA040491F803C0C4
:100BB000BCF1280F06D14FF0010C0CFA00FCC2F872
:100BC00014C00AE091F803C0BCF1480F05D14FF002
:100BD000010C0CFA00FCC2F810C0401C0828D1D34C
:100BE0001460B1F800C0BCF1FF0F34DD5468002080
:100BF0002EE000F1080C4FF0010808FA0CF3B1F8F0
:100C000000C00CEA03069E4221D183004FF00F0C76
:100C10000CFA03F7BC4305FA03FC4CEA040491F810
:100C200003C0BCF1280F05D100F1080C08FA0CF83C
:100C3000C2F8148091F803C0BCF1480F07D100F14D
:100C4000080C4FF0010808FA0CF8C2F81080401C9C
:100C50000828CED35460BDE8F0814FF6FF710180C3
:100C6000022181700421C170704702460020936800
:100C70000B400BB1012000E000207047014688685E
:100C800080B2704702460020D3680B400BB10120B0
:100C900000E0002070470146C86880B270470161DB
:100CA0007047416170470AB1016100E041617047DE
:100CB000C16070474FF480320A4382618161826172
:100CC00082698269704702460020434B18684FF6DC
:100CD0008073184040EA021008433F4B1860704789
:100CE0003E49C8617047F0B50A4600230024002140
:100CF000002500F00046B6F1004F02D1364EF169F2
:100D000001E0354E7168C0F3034583B200F440162C
:100D1000B6F5401F08D121F070612F4E766826F09D
:100D200070662D4F7E6012E000F48016B6F5801FCD
:100D300006D1032606FA05F4A14341F0706106E0EE
:100D4000460D360103FA06F6B14341F0706122B157
:100D5000460D360103FA06F6314300F00046B6F1BF
:100D6000004F02D11C4EF16101E01B4E7160F0BDDD
:100D700030B500228B071C0F0F2303FA04F2164B29
:100D800008338C1053F824309343134C08348D10DF
:100D900044F8253023468C1053F824308C07240F58
:100DA00000FA04F423430C4C08348D1044F8253029
:100DB00030BD0A49DC31086070470000000801407E
:100DC000000C0140001001400014014000180140D7
:100DD000001C0140002001400000014000002042B2
:100DE000DF48006840F00100DD49086008464068BF
:100DF000DC490840DA49486008460068DA4908409A
:100E0000D74908600846006820F48020086008463A
:100E1000406820F4FE0048604FF41F00886070476F
:100E2000CF49096821F48031CD4A11601146096823
:100E300021F480211160B0F5803F03D0B0F5802F00
:100E40000ED106E0C649096841F48031C44A1160F8
:100E500007E0C349096841F4A021C14A116000E0DC
:100E600000BF00BF704710B50146002200230020DC
:100E70004A11012A02D1BA4C236806E0022A02D1A3
:100E8000B74C236A01E0B64C636A01F01F020124EB
:100E900094401C400CB1012000E0002010BD38B58A
:100EA000002000900024002500BF3120FFF7DBFF69
:100EB00005460098401C00900098B0F5A06F01D046
:100EC000002DF2D03120FFF7CEFF08B1012400E061
:100ED0000024204638BD01460020A14A106820F0B9
:100EE000F80040EAC10010607047A04908607047F0
:100EF000024600209A4B586820F47C1042EA010315
:100F00001843974B586070479849086670470146E8
:100F10000020934A506820F0030008435060704757
:100F20008F48406800F00C007047014600208C4A52
:100F3000506820F0F00008435060704701460020E0
:100F4000874A506820F4E0600843506070470146CB
:100F50000020834A506820F4605040EAC10050608D
:100F6000704729B17E4A527A02437D4B5A7204E09F
:100F70007B4A527A82437A4B5A7270477B49D83106
:100F80000860704701460020754A506820F44040D0
:100F90000843506070470021714A20321170704A36
:100FA00082F82010012802D004280AD104E001218F
:100FB0006B4A2032117005E00521694A2032117018
:100FC00000E000BF00BF704769490860704764498E
:100FD000096A0143624A11627047654944390860F1
:100FE000704730B500210022002400235C4D6D685D
:100FF00005F00C0121B1042905D0082923D105E011
:101000005C4D056022E05B4D05601FE0544D6D684E
:1010100005F47012524D6D6805F48034022505EB1D
:1010200092421CB9544D554305600BE04C4D6D6820
:1010300005F400351DB1504D5543056002E04D4D9E
:101040005543056002E04B4D056000BF00BF444DB5
:101050006D6805F0F0010909484D6B5C0568DD40DD
:1010600045603F4D6D6805F4E061090A434D6B5CD6
:101070004568DD4085603A4D6D6805F46051C90AE8
:101080003E4D6B5C4568DD40C560354D6D6805F4CF
:101090004041890B3A4D6B5CC568B5FBF3F50561C2
:1010A00030BD29B12E4A526902432D4B5A6104E0EA
:1010B0002B4A526982432A4B5A61704729B1284A08
:1010C00092690243264B9A6104E0254A9269824361
:1010D000234B9A61704729B1214AD2690243204BC0
:1010E000DA6104E01E4AD26982431D4BDA6170471F
:1010F00029B11B4AD2680243194BDA6004E0184A4E
:10110000D2688243164BDA60704729B1144A1269DB
:101110000243134B1A6104E0114A12698243104BD7
:101120001A61704712494039086070470F49C86416
:1011300070470B49C87170470948406A40F0807099
:1011400007494862704701460020054A92680A40F4
:101150000AB1012000E00020704701498872704701
:10116000001002400000FFF8FFFFF6FE00004242C0
:101170008004424200127A0000093D001400002061
:101180002400002010B50446FE48844208D1012105
:10119000C014FFF7ADFF0021E014FFF7A9FFC4E082
:1011A000B4F1804F08D101210846FFF7AEFF0021BE
:1011B0000120FFF7AAFFB8E0F348844208D10121DB
:1011C0000220FFF7A2FF00210220FFF79EFFACE004
:1011D000EE48844208D101210420FFF796FF002148
:1011E0000420FFF792FFA0E0E948844208D10121E2
:1011F0000820FFF78AFF00210820FFF786FF94E010
:10120000E448844208D101211020FFF77EFF00212D
:101210001020FFF77AFF88E0DF48844208D10121DF
:101220002020FFF772FF00212020FFF76EFF7CE0F7
:10123000DA48844208D101214014FFF759FF002108
:101240006014FFF755FF70E0D548844209D10121B1
:10125000C804FFF74DFF00214FF40020FFF748FFBF
:1012600063E0D048844209D101210805FFF740FF1F
:1012700000214FF48010FFF73BFF56E0CA4884423C
:1012800009D101214805FFF733FF00214FF4001079
:10129000FFF72EFF49E0C548844208D101214020D4
:1012A000FFF733FF00214020FFF72FFF3DE0C0484C
:1012B000844208D101218020FFF727FF00218020F0
:1012C000FFF723FF31E0BB48844208D1012180159C
:1012D000FFF71BFF0021A015FFF717FF25E0B64819
:1012E000844209D101210804FFF702FF00214FF4D5
:1012F0008030FFF7FDFE18E0B048844209D101219B
:101300004804FFF7F5FE00214FF40030FFF7F0FE30
:101310000BE0AB48844208D101218804FFF7E8FEC6
:1013200000214FF48020FFF7E3FE10BD0022028869
:10133000944B98420ED0994B98420BD0B0F1804F0D
:1013400008D0914B984205D0904B984202D0904BD8
:10135000984204D14FF68F731A404B881A438D4B35
:10136000984207D08C4B984204D04FF6FF431A4066
:10137000CB881A4302808B8883850B880385814B39
:1013800098420BD0854B984208D08B4B984205D0A1
:101390008A4B984202D08A4B984201D10B7A03863D
:1013A00001238382704770B5002400220023058C3E
:1013B0004FF6FE7635400584028C8388048B4FF609
:1013C0008F752C40B51E2C400D882C43751E2A406D
:1013D0000D892A434D882A436A4DA8420BD06F4D90
:1013E000A84208D0744DA84205D0744DA84202D03E
:1013F000734DA84213D14FF6F7752A404D892A4301
:101400004FF6FB752A408D882A434FF6FF652B4027
:101410004FF6FF552B408D892B43CD892B4383807D
:101420000483CD888586028470BD70B500240022B7
:101430000023058C4FF6EF7635400584028C8388B7
:10144000048B48F6FF752C404FF6FF452C400D8865
:101450004FF6FF7606EA05252C434FF6DF752A4046
:101460000D8906EA05152A434D8806EA05152A4323
:10147000444DA84202D0494DA8421DD14FF67F7578
:101480002A404D894FF6FF7606EA05152A434FF6A6
:10149000BF752A408D8806EA05152A434FF6FF35A9
:1014A0002B404FF2FF752B408D8906EA85052B43B3
:1014B000CD8906EA85052B4383800483CD88058783
:1014C000028470BD70B5002400220023058C4FF605
:1014D000FF6635400584028C8388848B4FF68F75B8
:1014E0002C404FF6FC752C400D882C434FF6FF55D1
:1014F0002A400D894FF6FF7606EA05252A434D88D6
:1015000006EA05252A431F4DA84202D0234DA842D2
:101510001DD14FF2FF752A404D894FF6FF7606EA3E
:1015200005252A434FF6FF352A408D8806EA052512
:101530002A434EF6FF752B404DF6FF752B408D89E3
:1015400006EA05152B43CD8906EA05152B43838052
:101550008483CD888587028470BD70B50022002306
:101560000024058C4EF6FF7635400584038C848874
:10157000828B48F6FF752A404FF6FF452A400D88BA
:1015800020E00000002C0140000400400008004062
:10159000000C0040001000400014004000340140E6
:1015A000004C014000500140005401400018004030
:1015B000001C004000200040004001400044014069
:1015C000004801404FF6FF7606EA05252A434DF60E
:1015D000FF752B400D8906EA05352B434D8806EA39
:1015E00005352B43FA4DA84202D0FA4DA84208D146
:1015F0004BF6FF752C408D894FF6FF7606EA851570
:101600002C4384808283CD88A0F84050038470BD31
:10161000828B4FF2FF331A408283828B4FF6FF7327
:1016200003EA01231A4382837047F0B50C4615463E
:10163000002200210026078C4EF6FF7C07EA0C07EB
:101640000784828B018C4FF6FF7707EA043640F659
:10165000FF473A404FF6FF7707EA05273A434FF630
:10166000FF7707EA03373A43D94FB8420ED0D94F34
:10167000B8420BD0B0F1804F08D0D74FB84205D058
:10168000D64FB84202D0D64FB84206D14DF6FF77BA
:10169000394046F48057394305E047F6FF57394053
:1016A00044F48057394382830184F0BD828B4FF626
:1016B000F3731A408283828B0A4382837047F0B5AA
:1016C0000C461546002200210026078C4FF6FF6CC1
:1016D00007EA0C070784828B018C4FF6FF7707EA35
:1016E00004264FF60C773A404FF6FF7707EA0317C8
:1016F0002F433A43B64FB8420ED0B64FB8420BD044
:10170000B0F1804F08D0B44FB84205D0B34FB842C3
:1017100002D0B34FB84206D14FF6FF57394046F4D6
:101720008077394305E04FF2FF57394044F4807722
:10173000394382830184F0BD028B4FF2FF331A409C
:101740000283028B4FF6FF7303EA01231A430283DD
:101750007047F0B50C461546002200210026078C84
:101760004FF6EF7C07EA0C070784028B018C4FF6DB
:10177000FF7707EA041640F6FF473A404FF6FF7737
:1017800007EA03373A434FF6FF7707EA05273A435C
:101790008F4FB8420ED08F4FB8420BD0B0F1804F70
:1017A00008D08D4FB84205D08C4FB84202D08C4F34
:1017B000B84206D14FF6DF77394046F0100739437B
:1017C00005E04FF65F77394044F010073943028354
:1017D0000184F0BD028B4FF6F3731A400283028B33
:1017E0000A4302837047F0B50C46154600220021DB
:1017F000068C4FF6FE773E400684028B018C4FF636
:101800000C7632407E1C06EA03162E433243704E9D
:10181000B0420ED06F4EB0420BD0B0F1804F08D026
:101820006D4EB04205D06D4EB04202D06C4EB0420B
:1018300006D14FF6FD76314044F00106314305E014
:101840004FF6F576314044F00106314302830184BE
:10185000F0BD70B505460C465D4885420ED05D482A
:1018600085420BD0B5F1804F08D05B48854205D04A
:101870005A48854202D05A48854200D100E000BF54
:10188000208850B92389A28861882846FFF7ABFFDA
:10189000E1882846FFF79EFF25E0208804280AD12A
:1018A0002389A28861882846FFF753FFE1882846EC
:1018B000FFF742FF17E0208808280AD12389A28871
:1018C00061882846FFF7FBFEE1882846FFF7EEFE19
:1018D00009E02389A28861882846FFF7A6FEE188EF
:1018E0002846FFF795FE70BD2DE9F04105460C46F0
:1018F00000260127608808B9022600E00026A0889B
:10190000012801D1022700E001272088A0B92389FE
:10191000A28861882846FFF766FFE1882846FFF71E
:1019200059FF23893A4631462846FFF712FFE188DE
:101930002846FFF701FF13E02389A2886188284623
:10194000FFF707FFE1882846FFF7F6FE23893A46AE
:1019500031462846FFF747FFE1882846FFF73AFF60
:10196000BDE8F0810A884B881A438B881A43CB88DC
:101970001A430B891A434B891A438B891A43A0F8DF
:10198000442070474FF6FF71818000210180C180A3
:101990004180017270470021018041808180C180B7
:1019A000018141818181C181704700210180418095
:1019B000012181800021C1800181704700210180C7
:1019C00041808180C1800181418181817047000017
:1019D000002C014000340140000400400008004099
:1019E000000C004021B1028842F00102028004E0B4
:1019F00002884FF6FE731A400280704731B1B0F88A
:101A0000442042F40042A0F8442005E0B0F844200D
:101A1000C2F30E02A0F8442070471AB183890B4329
:101A2000838102E083898B43838170478182704781
:101A300041EA0203A0F8483070471AB183890B438A
:101A4000838102E083898B438381704701894FF64C
:101A5000F8721140018170470A46002101894FF652
:101A60008F73194011430181704730B504460D460C
:101A700029462046FFF7F0FF208940F0070020812B
:101A800030BD2DE9F04104460D4616461F46602D37
:101A900006D13B46012231462046FFF75AFE05E0BB
:101AA0003B46012231462046FFF79DFE294620464F
:101AB000FFF7D2FF208940F007002081BDE8F081C8
:101AC00030B50C4600210189C9B24FF6FF7505EA11
:101AD0000325154325432943018130BD2DE9F041FC
:101AE00005460E4617469846002443463A46314678
:101AF0002846FFF7E5FF2C894FF6F870044044F0C4
:101B000007044FF68F70044044F070042C81BDE848
:101B1000F081F0B504460D4616461F463B46324658
:101B200029462046FFF7CCFF208940F480402081E1
:101B3000F0BD0185828270470A46002101884FF678
:101B40008F731940114301807047F0B50C4615465C
:101B50001E460021002200230189028B038C4FF6D0
:101B6000F877394021434FF6FC473A4040F20117DD
:101B70003A434FF6DD773B404FF6FF7707EA06170B
:101B80002F433B43018102830384F0BD0A460021B9
:101B9000018B4FF68F7319401143018370470A463A
:101BA0000021018B48F6FF7319404FF6FF7303EADB
:101BB00002231943018370470A460021818B4FF6A7
:101BC0008F7319401143818370470A460021818B2E
:101BD00048F6FF7319404FF6FF7303EA02231943D7
:101BE0008183704721B1028842F08002028004E0C4
:101BF00002884FF67F731A400280704721B18288B5
:101C000042F00402828004E082884FF6FB731A409F
:101C10008280704721B1828842F00802828004E00D
:101C200082884FF6F7731A408280704721B182880C
:101C300042F00102828004E082884FF6FE731A406F
:101C4000828070470A460021018B4FF6F7731940D6
:101C50001143018370470A460021018B4FF2FF7345
:101C600019404FF6FF7303EA0223194301837047BB
:101C70000A460021818B4FF6F77319401143818387
:101C800070470A460021818B4FF2FF7319404FF6CF
:101C9000FF7303EA02231943818370470A46002138
:101CA000018B4FF6FB7319401143018370470A46BD
:101CB0000021018B4FF6FF3319404FF6FF7303EA03
:101CC00002231943018370470A460021818B4FF696
:101CD000FB7319401143818370470A460021818BB1
:101CE0004FF6FF3319404FF6FF7303EA02231943FF
:101CF000818370470A460021018B4FF67F7319409C
:101D00001143018370470A460021018BC1F30E0184
:101D10004FF6FF7303EA02231943018370470A4613
:101D20000021818B4FF67F731940114381837047E7
:101D30000A460021818BC1F30E014FF6FF7303EABF
:101D400002231943818370470A460021018C4FF614
:101D5000FD7319401143018470470A460021018C2C
:101D60004FF6F77319401143018470470A4600216A
:101D7000018C4FF6DF7319404FF6FF7303EA02132D
:101D80001943018470470A460021018C4FF67F7386
:101D900019404FF6FF7303EA021319430184704799
:101DA0000A460021018C4FF6FF5319404FF6FF738E
:101DB00003EA02231943018470470A460021018C7B
:101DC0004FF2FF7319404FF6FF7303EA02231943E2
:101DD000018470470A460021018C4DF6FF731940BB
:101DE0004FF6FF7303EA023319430184704730B59D
:101DF000002301248C40A3B2048C9C430484048CF3
:101E000002FA01F5ADB22C43048430BD30B5002395
:101E100004248C40A3B2048C9C430484048C02FAF6
:101E200001F5ADB22C43048430BD70B503460020EB
:101E300000241846183001258D40ACB21D8CA543F6
:101E40001D8409B1082909D100EB6100056825F05E
:101E5000700505600568154305600EE00D1FC5F3AC
:101E60004E052844056825F4E045056005684FF6F1
:101E7000FF7606EA02263543056070BD21B102886F
:101E800042F00202028004E002884FF6FD731A401D
:101E90000280704721B1028842F00402028004E00F
:101EA00002884FF6FB731A400280704721B1828886
:101EB00042F08002828004E082884FF67F731A40ED
:101EC0008280704702884FF6F7731A4002800288BA
:101ED0000A430280704782884FF68F731A408280CF
:101EE00082880A438280704702894FF6F8731A404D
:101EF000028102890A430281704702894FF67F738B
:101F00001A40028102890A43028170478184704726
:101F10008185704781867047018770478187704748
:101F2000A0F84010704702884FF6FF431A40028025
:101F300002880A43028070470146888E7047014636
:101F4000088F70470146888F70470146B1F84000FE
:101F500070470146888C70470146088D70470246DD
:101F60000020138A0B400BB1012000E000207047D5
:101F7000CA430282704730B5024600200023002485
:101F8000158A05EA0103958905EA010413B10CB12C
:101F9000012000E0002030BDCA43028270470000EB
:101FA00010B50446FB48844209D101218803FFF79C
:101FB0009FF800214FF48040FFF79AF832E0F6488E
:101FC000844209D101214804FFF79FF800214FF412
:101FD0000030FFF79AF825E0F048844209D101214A
:101FE0008804FFF792F800214FF48020FFF78DF866
:101FF00018E0EB48844209D10121C804FFF785F8B5
:1020000000214FF40020FFF780F80BE0E548844200
:1020100008D101210805FFF778F800214FF480105E
:10202000FFF773F810BD2DE9F04786B005460E4660
:102030000024A24600BFA1460027B08900B100BF1E
:102040002F462C8A4CF6FF700440F08804432C8203
:10205000AC894EF6F3100440B08831890843718989
:1020600008430443AC81AC8A4FF6FF400440B0897A
:102070000443AC8201A8FEF7B4FFC648874202D1F0
:10208000DDF810A001E0DDF80CA0A88900F4004004
:1020900040B10AEBCA0000EB0A1031684900B0FBFE
:1020A000F1F807E00AEBCA0000EB0A10316889007A
:1020B000B0FBF1F86420B8FBF0F0040120096421C2
:1020C00001FB1089A88900F4004040B1322000EBE8
:1020D000C900B0FBF1F000F00700044308E0322033
:1020E00000EB09106421B0FBF1F000F00F00044395
:1020F0002C8106B0BDE8F0874FF416510160002135
:102100008180C18001810C21418100218181704742
:1021100010B502460020108A4FF2FF0318400B88CA
:102120004C8823438C882343CC8823431843108254
:1021300010BD0021018041808180C180704721B1A4
:10214000828942F40052828104E082894DF6FF7355
:102150001A4082817047F0B503460024002600250E
:10216000002040F66A17B94200D100BF1846C1F3FB
:10217000421401F01F06012707FA06F5012C01D1D0
:102180000C3004E0022C01D1103000E014301AB100
:1021900007682F43076002E00768AF430760F0BDA0
:1021A0001AB1838A0B43838202E0838A8B43838242
:1021B0007047028A4FF6F0731A400282028A0A437D
:1021C0000282704782894FF2FF731A4082818289AE
:1021D0000A438281704721B1828942F002028281E2
:1021E00004E082894FF6FD731A4082817047028AAB
:1021F0004FF6DF731A400282028A0A430282704756
:1022000021B1028A42F48042028204E0028A4BF643
:10221000FF731A4002827047C1F308028280704740
:1022200001468888C0F308007047818941F00101A8
:1022300081817047028BD2B20283028B42EA012273
:1022400002837047028B02F47F420283028B0A43AF
:102250000283704721B1828A42F02002828204E028
:10226000828A4FF6DF731A408282704721B1828AD8
:1022700042F01002828204E0828A4FF6EF731A4025
:102280008282704721B1828A42F00802828204E091
:10229000828A4FF6F7731A408282704721B1828991
:1022A00042F40042828103E08289C2F30E028281FD
:1022B000704721B1828A42F40062828204E0828AFD
:1022C0004FF2FF731A4082827047828A4FF6FB7387
:1022D0001A408282828A0A438282704721B1828AAE
:1022E00042F00202828204E0828A4FF6FD731A40B5
:1022F0008282704702460020B1F5007F00D100BF06
:1023000013880B400BB1012000E00020704701F45E
:102310000072B2F5007F00D100BFCA43028070474F
:1023200070B50246002400230025002040F66A16FE
:10233000B14200D100BFC1F3421501F01F030126D5
:1023400006FA03F3012D02D19689334006E0022DEF
:1023500002D1168A334001E0968A33400C120126DE
:1023600006FA04F41688344013B10CB1012000E0E1
:10237000002070BD10B50022002340F66A14A1426F
:1023800000D100BF0A1201249440A3B2DC430480B0
:1023900010BD0000003801400044004000480040EB
:1023A000004C00400050004070B504460D46E1B2BC
:1023B0003948FFF731FF00BF40213748FFF79AFF48
:1023C0000028F9D0204670BD0FB438B505A800909C
:1023D0003248009A049901F0F1FD002000902F4846
:1023E00001F046FB85B200240DE000BF40212A48E1
:1023F000FFF780FF0028F9D02848015D2648FFF745
:102400000BFF601C84B2AC42EFDB38BC5DF814FB00
:1024100042F2107000F07AF901F0E0F80120204952
:102420000870487100F07EF900F00EFA00F0BBF978
:1024300000F037FA00F089F900F01CFA00F04AFCCD
:1024400001F0AAF900F0A2F842F2107000F05EF973
:1024500000F03CF842F2107000F058F900F046FE2F
:1024600042F2107000F052F901F040F842F21070A0
:1024700000F04CF900F0B4F842F2107000F046F9A8
:1024800000F07BFB06E001F0CEF801F03DF905A07D
:10249000FFF79AFFF7E700000048004052010020D4
:1024A0004801002048656C6C6F0D0A000120054949
:1024B0004870704710B500F0BDFE80210248FFF75C
:1024C0006BFD10BD30010020002C014000B585B02F
:1024D00001214802FEF7F2FD8248FDF781FF6846C0
:1024E000FDF7C8FF0020009001208DF804008DF852
:1024F00005004FF4602002900020039005208DF825
:10250000100069467748FDF792FF0020FEF73AFD7C
:1025100001231A4600217348FEF721F80123022205
:1025200019467048FEF71BF80123032202216D486B
:10253000FEF715F80123042203216A48FEF70FF87D
:102540000123052208216748FEF709F801216548A3
:10255000FDF799FF01216348FDF7A0FF6148FDF7F2
:10256000B4FF00BF5F48FDF7B5FF0028FAD15D4812
:10257000FDF7BAFF00BF5B48FDF7BBFF0028FAD1AB
:1025800001215848FDF7BFFF05B000BD00B58BB075
:1025900001210846FEF785FD5348FEF749F95148E9
:1025A0004C3000905148019000200290052003908B
:1025B0000020049080200590400006908000079045
:1025C000202008900002099000200A9069464648A1
:1025D000FEF7D0F901214448FEF7F7F90BB000BD32
:1025E00030B5424880884249424A127821F81200A8
:1025F0003E48418840483F4A127820F812103B4834
:1026000000883E493B4A127821F812003948007888
:10261000401C3849087008460078402801DB00203B
:10262000087037488078E0B900210022002300209C
:102630000DE02F4C34F8104021442F4C34F810405A
:1026400022442E4C34F810402344441CE0B240286D
:10265000EFDB8C092B4DEC6194092C629C09AC6179
:1026600000BF30BD2148008826498969401A1930C9
:10267000244948600846006A1C494988401A214993
:10268000C8600846C06919498988401A1D49886090
:102690001648C08848611548008908610846406AA4
:1026A0000968484381121748806A164A52685043A5
:1026B00001EBA02013490860704710B5114800686D
:1026C000002802DB0F48006802E00E480068404224
:1026D0000D490988884204DD00F0ACFD002008495E
:1026E000087210BD0024014008000240AA03002027
:1026F000B4030020F000002034040020B4040020C3
:102700004801002094000020EE00002042F21071E9
:1027100005E001E04A1E91B20029FBD1401E0028CD
:10272000F7D1704708B501211C20FEF7C7FC042033
:10273000ADF8000010208DF8030003208DF8020092
:1027400069467648FEF7FEF908BD08B54FF46040CB
:10275000ADF8000004208DF8030003208DF802007E
:1027600069466F48FEF7EEF908BD08B54FF4805092
:10277000ADF8000018208DF8030003208DF802004A
:1027800069466848FEF7DEF94FF40060ADF80000D6
:1027900048208DF8030003208DF802006946614847
:1027A000FEF7D0F908BD08B54FF48060ADF8000021
:1027B00018208DF8030003208DF802006946574861
:1027C000FEF7C0F94FF40060ADF8000004208DF86A
:1027D000030003208DF8020069465048FEF7B2F965
:1027E00008BD08B54FF40040ADF8000004208DF896
:1027F000030003208DF8020069464A48FEF7A2F95B
:102800003020ADF8000004208DF8030003208DF87F
:10281000020069464148FEF795F908BD08B56846CB
:10282000FEF71BFA01210803FEF75DFAE020ADF880
:10283000000004208DF8030003208DF80200694693
:102840003648FEF77FF908BD08B50F20ADF8000047
:1028500000208DF8030069463248FEF773F9012025
:10286000ADF8000000208DF8030069462B48FEF704
:1028700069F908BD08B56846FEF7EFF901210803BC
:10288000FEF731FA4FF44070ADF8000018208DF8D3
:10289000030003208DF8020069462048FEF752F934
:1028A00008BD08B501212048FEF71DFA4FF4E0608D
:1028B000ADF8000018208DF8030003208DF8020009
:1028C00069461848FEF73EF94FF46040ADF8000045
:1028D00018208DF8030003208DF8020069460F4888
:1028E000FEF730F94FF48050ADF8000048208DF825
:1028F000030069460948FEF725F908BD07480C3072
:10290000006800F0040008B9002100E01021042054
:10291000884002491031086070470000000C0140F7
:102920000010014000080140C000160001460A885E
:1029300090B2801100F440724AB1B2F5807F12D09B
:10294000B2F5007F1CD0B2F5407F34D126E0C2B290
:10295000764B33F912204A60C2B2C2F1FF0233F95A
:1029600012208A6028E0C2B2C2F1FF026F4B33F935
:1029700012204A60C2B233F9122052428A601BE030
:10298000C2B26A4B33F9122052424A60C2B2C2F15B
:10299000FF0233F9122052428A600DE0C2B2C2F146
:1029A000FF02624B33F9122052424A60C2B233F93D
:1029B00012208A6000E000BF00BF704703469342C8
:1029C00001DC104604E08B4201DB084600E01846BB
:1029D00070470021026822B9426802B965E0FF2110
:1029E00063E04268002A01DB426801E0426852422B
:1029F000D3030268002A01DB026801E00268524248
:102A000093FBF2F282604A4B01F1800253F82220DC
:102A100083689A4202DC01F1800211B2444B01F159
:102A2000400253F8222083689A4202DC01F14002FE
:102A300011B23F4B01F1200253F8222083689A42E1
:102A400002DC01F1200211B2394B01F1100253F8FE
:102A5000222083689A4202DC01F1100211B2344B49
:102A600001F1080253F8222083689A4202DC01F146
:102A7000080211B22E4B0A1D53F8222083689A4295
:102A800001DC0A1D11B22A4B8A1C53F822208368EC
:102A90009A4201DC8A1C11B2254B4A1C53F82220B1
:102AA00083689A4201DC4A1C11B24268002A08DDA0
:102AB0000268002A01DDC1600DE0C1F50072C2604C
:102AC00009E00268002A03DDC1F58062C26002E00D
:102AD00001F50072C260C268002A03DAC26802F51A
:102AE0008062C260C2689201C260704730B503461E
:102AF0000BB9002030BD00219A0F9B00012A01D99B
:102B0000491C521A0F240DE04900920002EB937207
:102B10000D46012000EB45059B00AA4201D3521B44
:102B2000491C641E002CEFD10846E3E7BC480008AE
:102B3000BC4A000810B50446D4E90001401A2062DE
:102B4000A16AA068884206D1216A60694843E16AA7
:102B500001EBE03000E0E06A6062606AE062216AF6
:102B600020694843616A01EBE030A062D4E90612B3
:102B7000A06AFFF723FFA06010BD42F6E0600B499A
:102B8000086140F22440486141F23E7088610020B3
:102B9000C86142F22830064908614FF45C70486110
:102BA00041F23E7088610020C86170473400002007
:102BB0006400002010B544480078022841D1434801
:102BC0004069B0F5AF7F0EDC00203F498870087285
:102BD000C8803F4948600860086248628862C862ED
:102BE0008860C86011E00120374988703748406923
:102BF000A0F59670364908600846006840F6C41192
:102C0000884202DB0846324908602F48C07830B954
:102C10002D488078012802D12B4908720CE02A48FF
:102C2000C078012803D128488078012804D000F01A
:102C300001FB002024490872234880782249C8708B
:102C400040E022484069B0F5AF7F0EDC00201E490D
:102C500088700872C8801E4948600860086248622F
:102C60008862C8628860C86011E0012016498870D7
:102C700016484069A0F59670154908600846006836
:102C800040F6C411884202DB0846114908600E482C
:102C9000C07830B90C488078012802D10A490872FE
:102CA0000CE00948C078012803D107488078012842
:102CB00004D000F0BFFA002003490872024880786F
:102CC0000149C87010BD0000480100209400002098
:102CD000340000200420A84981F82000084690F81C
:102CE0002000A64991FBF0F0A349C861704710B5D8
:102CF0004FF40051A248FDF7B8FF012802D19E49C8
:102D0000087002E000209C4908704FF480419C4804
:102D1000FDF7ABFF012802D19749487002E000207F
:102D2000954948704FF400419548FDF79EFF0128F2
:102D300002D19149887002E000208F4988708E4846
:102D400000788D49497800EB41008B49897800EB88
:102D500081008949C8708B48007A01287ED10846D5
:102D6000C078097988427AD08348C078072853D23E
:102D7000DFE800F0522B4538111E040081484079ED
:102D8000012801D100F076FA7E484079022801D16D
:102D900000F00CFB46E07B484079012801D100F0AF
:102DA0009DFA78484079022801D100F033FB39E0E0
:102DB00074484079012801D100F0C4FA7148407983
:102DC000022801D100F05AFB2CE06E48407901281E
:102DD00001D100F0EBFA6B484079022801D100F0F4
:102DE00049FA1FE067484079012801D100F012FB41
:102DF00064484079022801D100F070FA12E061487D
:102E00004079012801D100F039FB5E484079022861
:102E100001D100F097FA05E000F00CFA00205649C5
:102E2000488400BF00BF5448C08A574909884843B6
:102E300081125148808A554A1288504301EBA020E4
:102E40004D49C8820846C069C98AB0FBF1F04A49B9
:102E500048840846808C4C49098801E087E00DE0F1
:102E6000484381124448408C484A1288504301EB41
:102E7000A020414988840020888278E03E48C078BC
:102E80003D490979884272D13B48808A401C3A49C1
:102E900088820846808AB0F5FA5F68DB0020888265
:102EA000888400F0C7F900203349086181F82100C7
:102EB0000846C078072853D2DFE800F0522B453887
:102EC000111E04002F484079012801D100F0D2F9E9
:102ED0002C484079022801D100F068FA46E02948E0
:102EE0004079012801D100F0F9F9264840790228FB
:102EF00001D100F08FFA39E022484079012801D150
:102F000000F020FA1F484079022801D100F0B6FAFB
:102F10002CE01C484079012801D100F047FA1948FB
:102F20004079022801D100F0A5F91FE01548407949
:102F3000012801D100F06EFA12484079022801D12F
:102F400000F0CCF912E00F484079012801D100F0DF
:102F500095FA0C484079022801D100F0F3F905E018
:102F600000F068F900200449488400BF00BF02480F
:102F7000C0780149087110BDC0000020C0D4010014
:102F80000010014048010020F4000020F200002061
:102F900010B5FFF767FBFFF7AAFE4848807808B92D
:102FA000FFF71EFB46480078401C4549087008465C
:102FB0000078182870DD00200870FFF7FBFD4148FD
:102FC000008A414948823F48008808823F488088FB
:102FD00008843E480088C8833D48808C3B4948604F
:102FE0000846FFF7A7FD3948C0683A4909884843B1
:102FF000811236488068384A1288504301EBA0207D
:103000003249C8602F484069142190FBF1F000F567
:103010009670324908602B48006848600846FFF700
:1030200089FD2E48C0682B490988484381122B48E6
:103030008068294A1288504301EBA0202749C860C4
:103040001E480078012806D1204800884004000C62
:103050002349088020E01948007802281CD11F4825
:10306000C0681A49C96888420BDD184880891C4924
:1030700008801648C068194948621448C068C86288
:103080000AE016488089164908801448C0680F492C
:1030900048621248C068C862FFF70FFB0C48818C79
:1030A0001048FEF73BFF0E4801880E48FEF738FF38
:1030B00001210D48FEF75CFF10BD00004801002013
:1030C000300100209400002008010020340000207E
:1030D000C0000020F6000020F8000020640000205E
:1030E000FA00002000080040002C014000B58DB01F
:1030F0000121C802FDF7E2FF0020ADF82800ADF87D
:103100002A0041F26F70ADF82C000020ADF82E00BF
:103110008DF830000AA9F348FEF708F90020ADF851
:1031200018000120ADF81A000420ADF81C000020A2
:10313000ADF81E00ADF82000ADF822004FF480700D
:10314000ADF824004000ADF8260006A9E548FEF7DA
:103150002AF906A9E348FEF768F906A9E148FEF74F
:10316000B1F90821DF48FEF76DFD0821DD48FEF7C3
:1031700072FD0821DB48FEF77BFD4FF40060ADF8DF
:1031800008004010ADF80A000020ADF80C006A20DD
:10319000ADF80E004FF48050ADF810000020ADF8EF
:1031A00012004FF48040ADF8140002A9CD48FEF79C
:1031B000D9FB8021CB48FEF7EFFE01228021C948D0
:1031C000FEF72BFC0121C748FEF7D2FE0121C548BE
:1031D000FEF7E2FE01221146C248FEF71EFC012165
:1031E000C048FEF7FFFB0121BE48FEF707FC4FF485
:1031F000A060FDF787F818208DF8040000208DF8F6
:1032000005008DF8060001208DF8070001A8FDF7E4
:103210007EF819208DF8040001208DF805000020AB
:103220008DF8060001208DF8070001A8FDF76FF862
:103230000DB000BD10B500221146AA48FEF7D7FD1B
:1032400000221146A748FEF7E1FD00220421A5480F
:10325000FEF7CDFD00220421A248FEF7D7FD002293
:103260000821A048FEF7C3FD002208219D48FEF773
:10327000CDFD10BD10B5602200219A48FEF7D5FDA6
:10328000012200219748FEF7B2FD04220021954853
:10329000FEF7BCFD602204219248FEF7C6FD012224
:1032A00004219048FEF7A3FD042211468D48FEF745
:1032B000ADFD002208218B48FEF799FD0022082170
:1032C0008848FEF7A3FD8848008881B28548FEF74C
:1032D00021FE00218348FEF71FFE10BD10B56022BD
:1032E00000218048FEF7A1FD012200217D48FEF764
:1032F0007EFD042200217B48FEF788FD0022042188
:103300007848FEF774FD002204217648FEF77EFD22
:10331000602208217348FEF788FD012208217148C8
:10332000FEF765FD042208216E48FEF76FFD6E482A
:10333000008881B26B48FEF7EDFD00216948FEF779
:10334000EDFD10BD10B5002211466648FEF74FFD99
:10335000002211466348FEF759FD602204216148AE
:10336000FEF763FD012204215E48FEF740FD0422C2
:1033700011465C48FEF74AFD602208215948FEF7D5
:1033800054FD012208215748FEF731FD042208218F
:103390005448FEF73BFD5448008881B25148FEF77F
:1033A000BBFD00214F48FEF7B9FD10BD10B56022EE
:1033B00000214C48FEF739FD012200214948FEF763
:1033C00016FD042200214748FEF720FD602204215B
:1033D0004448FEF72AFD012204214248FEF707FD7A
:1033E000042211463F48FEF711FD002208213D4806
:1033F000FEF7FDFC002208213A48FEF707FD0021F8
:103400003848FEF787FD3848008881B23548FEF716
:1034100083FD10BD10B5602200213248FEF705FD86
:10342000012200212F48FEF7E2FC042200212D4852
:10343000FEF7ECFC002204212A48FEF7D8FC00220B
:1034400004212848FEF7E2FC602208212548FEF707
:10345000ECFC012208212348FEF7C9FC04220821C4
:103460002048FEF7D3FC00211E48FEF753FD1E48FE
:10347000008881B21B48FEF751FD10BD10B5002237
:1034800011461848FEF7B3FC002211461548FEF716
:10349000BDFC602204211348FEF7C7FC0122042171
:1034A0001048FEF7A4FC042211460E48FEF7AEFCBD
:1034B000602208210B48FEF7B8FC012208210948C8
:1034C000FEF795FC042208210648FEF79FFC002128
:1034D0000448FEF721FD0448008881B20148FEF748
:1034E0001DFD10BD002C0140FA00002000B587B082
:1034F00001210420FDF7EFFD2E48006844F25061E1
:10350000B0FBF1F0401E80B2ADF814000020ADF821
:103510001000ADF81600ADF8120004A92648FDF71A
:1035200005FF6020ADF800000120ADF80200642026
:10353000ADF806000020ADF8080069461E48FDF70A
:1035400032FF08211C48FEF77DFB0120ADF8020088
:103550006420ADF8060069461748FDF766FF0821AC
:103560001548FEF778FB0120ADF802006420ADF8A5
:10357000060069461048FDF7A5FF08210E48FEF732
:1035800077FB0120ADF802006420ADF80600694623
:103590000948FDF7E2FF08210748FEF772FB012109
:1035A0000548FEF71FFB01210348FEF71BFA07B091
:1035B00000BD0000000000200008004010B50028F9
:1035C00007DA0A07140E704A00F00F031B1FD454C9
:1035D00003E00A07130E6D4A135410BD10B56C4872
:1035E00000686421B0FBF1F4B4F1807F01D30120C5
:1035F00011E024F07F40401E4FF0E02148610F2190
:103600004FF0FF30FFF7DAFF00204FF0E021886134
:1036100007200861002008B100BFFEE70021481E16
:10362000FFF7CCFF10BD10B55A48407801286AD189
:10363000002058494870012088700846C078401C16
:10364000C0B2C8700A2803DB0020C87001200871CE
:1036500050484079401CC0B24E494871142803DBE1
:1036600000204871012088714A48C079401CC0B2CE
:103670004849C8711E2803DB0020C8710120087268
:103680004448407A401CC0B242494872282803DBB3
:1036900000204872012088723E48C07A401CC0B2A7
:1036A0003C49C872322803DB0020C872012008732D
:1036B0003848407B401CC0B236494873642806DB5A
:1036C000FFF71CF900203349487301208873314803
:1036D000008A401C80B22F490882B0F57A7F03DB54
:1036E00000200882012088742A48808A401C80B209
:1036F0002849888241F27071884204DB0020254904
:1037000088820120887510BD22488078012802D166
:103710000020204988701F480079012802D100202C
:103720001C4908711B488079012802D100201949E1
:1037300088711848007A012802D1002015490872C2
:103740001448807A012802D1002012498872114859
:10375000007B012802D100200E4908730D48807BB0
:10376000012802D100200B4988730A48807C012877
:1037700002D10020074988740648807D012802D1C3
:10378000002004498875704718ED00E000E400E06F
:10379000000000203001002000B585B00121880420
:1037A000FDF799FC27208DF8000003208DF801001B
:1037B0008DF8020001208DF803006846FCF7A7FD94
:1037C000A348FEF7EDFB4FF4E13001900020ADF887
:1037D0000800ADF80A00ADF80C00ADF810000C20A0
:1037E000ADF80E0001A99A48FEF71DFC012240F237
:1037F00025519748FEF7AFFC01219548FEF79FFC45
:1038000005B000BD70B504460D469148008800BF64
:1038100021788F48FEF700FD00BF8D48008800F03A
:1038200040000028F9D0641C681EC5B2002DEFD1FD
:1038300070BD8849097B012920D1AA21864A1170CF
:103840001146498A091251701146897C91701146BE
:10385000C98B0912D1701146897F11717F4949794D
:1038600051717E49097A9171CC21D1717B49497995
:10387000012901D1012001E04FF0FF307047002005
:10388000754991F8221001290DD10021724A82F860
:10389000221000BF05E0704908310A5C0A54411C3F
:1038A000C8B20828F7DB70470146A1F13002112A9F
:1038B00054D2DFE802F00910171E252C333A414894
:1038C0005353535353534F000020654A1268521C00
:1038D000634B1A6042E00120614A1268521C604B3F
:1038E0001A603BE002205E4A1268521C5C4B1A6070
:1038F00034E003205A4A1268521C594B1A602DE0DA
:103900000420574A1268521C554B1A6026E00520C5
:10391000534A1268521C524B1A601FE00620504A4C
:103920001268521C4E4B1A6018E007204C4A12686D
:10393000521C4B4B1A6011E00820494A1268521C75
:10394000474B1A600AE00920454A1268521C444B52
:103950001A6003E00022424B1A6000BF00BF7047AC
:1039600030B50246002007295DD2DFE801F05C0493
:10397000060F1B2C4200107855E0137803EB8303ED
:103980005B005478012505FB04304CE01378642477
:10399000634354780A2505FB04339478012505FB1D
:1039A000043040E013784FF47A746343547864250C
:1039B00005FB043394780A2505FB0433D4780125EC
:1039C00005FB04302FE0137842F2107463435478FF
:1039D0004FF47A7505FB04339478642505FB0433B2
:1039E000D4780A2505FB04331479012505FB04303E
:1039F00019E013781B4C6343547842F2107505FBB1
:103A0000043394784FF47A7505FB0433D478642535
:103A100005FB043314790A2505FB04335479012589
:103A200005FB043000BF00BF30BD10B500200E49BB
:103A3000088040F225510648FEF772FC38B101209B
:103A4000094908800248FEF7EBFB0849087010BDE1
:103A500000480040300100200801002048010020FB
:103A600000010020A0860100E8000020EC000020FA
:103A7000421C10F8011B0029FBD1801A704730B599
:103A80000B46014600202022012409E021FA02F51C
:103A90009D4205D303FA02F5491B04FA02F52844B6
:103AA000151EA2F10102F1DC30BD2DE9F05F0546E3
:103AB000002092469B4688460646814640241BE0ED
:103AC000284641464746224600F0F9F953465A46F1
:103AD000C01A914110D311461846224600F0E0F971
:103AE0002D1A67EB01084F4622460120002100F005
:103AF000D7F917EB00094E41201EA4F10104DFDCC9
:103B0000484631462A464346BDE8F09F2DE9FE4F20
:103B1000804681EA0300C00F0C46009021F000416E
:103B200023F00045B8EB0200A94105D240462146EA
:103B300090461C460B46024623F00040104347D0F7
:103B4000270DC7F30A00C3F30A510290401A0190EF
:103B500040286BDAC3F3130040F4801B00989246B0
:103B600020B10023D2EB030A63EB0B0B01985946FB
:103B7000C0F14002504600F093F906460D4650460B
:103B80005946019A00F0ABF910EB0800614100249E
:103B900087EA115284EAE7731A4340D0009A62B36D
:103BA000019A012A4FEA075215DC001B61EB020162
:103BB0004FF0004202EA0752CDE90042001C41F5F5
:103BC000801132462B4600F0ABF903B0BDE8F08F10
:103BD00040462146F9E7001B61EB0201001C41F55C
:103BE000801300185B412018A2F5001747EB030172
:103BF00040EAD570B6196D4111E06D084FEA3606FE
:103C000045EAC0754FEA0752001B61EB0201001C38
:103C100041F5801149084FEA300000195141324600
:103C20002B4603B0BDE8F04F00F06BB900980122BD
:103C300040000023D0EB020263EBE07300982146C2
:103C40004FEAE074B8EB000061EB0401E9E783F0B0
:103C500000435BE781F0004158E72DE9FE4F81EA20
:103C6000030404F0004421F0004100944FF0000BE5
:103C700023F0004350EA01045ED052EA03045BD013
:103C8000C3F30A54C1F30A552C44A4F2F33401944B
:103C9000A0FB0254C1F3130141F48011C3F31303D9
:103CA00043F4801301FB024400FB034E840A970A8D
:103CB00044EA815447EA8357A4FB076802958D0ABA
:103CC00005FB07854FEA932C04FB0C542705029D46
:103CD0004FEA065847EA1637B5EB08056EEB070CB6
:103CE000870E920E47EA811742EA8312A7FB020170
:103CF000B6EB0B0164EB00042B0D43EA0C335E18AA
:103D000044EB1C50DA465146E7FB0201C5F31304AD
:103D10004FEA0B3343EA14534FEA0432019C43EA5F
:103D20000603A4F10C040294009CCDE900B400F059
:103D3000F7F803B0BDE8F08F00200146F9E72DE960
:103D4000F04D81EA030404F0004B21F000451446D5
:103D50004FF0000A23F0004150EA050220D054EA57
:103D600001021DD0C5F30A570246C5F31303C1F380
:103D70001300C1F30A5640F4801543F48013A7EBF7
:103D80000608101BD64608F2FD3873EB050002D377
:103D900008F1010801E092185B41B8F1000F03DA65
:103DA00000200146BDE8F08D00204FF4801106464A
:103DB00084460EE0171B73EB050705D3121B63EB5C
:103DC000050306434CEA010C49084FEA30009218FB
:103DD0005B4150EA0107EDD152EA030012D082EABA
:103DE000040083EA0501084305D0101BAB4106D24D
:103DF0000122002306E000224FF0004302E06FF0B2
:103E0000010253101AEB06004CEB085110EB0A00AC
:103E100041EB0B01BDE8F04D00F073B8C1F30A525D
:103E2000C1F3130140F2FF3341F480119A4202DAE8
:103E300000200146704740F233439A42A2F23342D7
:103E400002DC524200F03BB800F02AB830B5041E44
:103E500071F1000404DB4FF00044404264EB0101C7
:103E6000141E73F1000405DB1C464FF00043524260
:103E700063EB0403994208BF904230BD064C074DE6
:103E800006E0E06840F0010394E80700984710342A
:103E9000AC42F6D3FCF72EF9BC4E0008DC4E00080D
:103EA000202A04DB203A00FA02F1002070479140FA
:103EB000C2F1200320FA03F3194390407047202AEF
:103EC00004DB203A21FA02F00021704721FA02F3C4
:103ED000D040C2F120029140084319467047202A81
:103EE00006DBCB17203A41FA02F043EAE07306E022
:103EF00041FA02F3D040C2F1200291400843194632
:103F0000704710B5141E73F1000408DA401C41F12B
:103F1000000192185B411A4301D120F0010010BD4D
:103F20002DE9F04D92469B4611B1B1FA81F202E0C3
:103F3000B0FA80F220329046FFF7B2FF04460F46F7
:103F400040EA0A0041EA0B0153465A46084313D09F
:103F5000114653EA010019D0C8F140025046FFF75C
:103F6000AEFF05460E46504659464246FFF798FFBB
:103F7000084305D0012004E020463946BDE8F08D15
:103F80000020054346EAE0762C4337430A98630550
:103F9000E40AA0EB08000022FD0A44EA47540A3074
:103FA00002D500200146E9E7010510196941DDE964
:103FB000084500196941BDE8F04DA2E737B5144640
:103FC0000846064B6A46214600F0DCF8044669467E
:103FD000002000F06EFC20463EBD0000B348000803
:103FE00002E008C8121F08C1002AFAD170477047C2
:103FF000002001E001C1121F002AFBD17047000020
:104000002DE9FF5F82B00021DDE90430020DDDF80B
:1040100040B0034318D044F61050A2F2FF3242439E
:104020001514119801281FD0A5EB0B00401C5FEA66
:10403000000A4FF000064E4FDFF83891B046504668
:1040400015D5CAF1000413E0119801244AA30128F0
:1040500001D16FEA0B010298119AC0E90031C0E961
:10406000024206B0BDE8F09FCBF10000DFE7044656
:104070000021404A491842EB0450CDE9001012E0FB
:10408000E00707D032463B4640464946FFF7E5FD8C
:104090008046894632463B4610461946FFF7DDFD0D
:1040A00006460F466410002CEAD1DDE90401DDE983
:1040B0000023BAF1000F06DAFFF7CFFD42464B4668
:1040C000FFF7CBFD05E0FFF73AFE42464B46FFF710
:1040D00036FE04460E460022284BFFF7B7FE03D8F3
:1040E0004FF0FF30014607E00022254B20463146C5
:1040F000FFF70CFDFFF792FE102409E0002C0ADB0D
:104100000A220023FFF7D1FC039B30321A55641EAC
:1041100050EA0102F2D1641C039AC4F11103144461
:10412000119A012A03D0012208430DD10AE0084365
:1041300004D000204FF0110B119072E7A3EB0B0598
:104140006D1E0DE05B4504DD4FF0000205F1010539
:1041500004E003DA4FF00002A5F10105002AECD0DB
:1041600002981199C0E90231C0E9004579E70000E1
:10417000000014400000F03F300000000000F04359
:104180000000E03F2DE9FF4F95B09B46894606466B
:1041900000250FE2252877D100242746F84A01217F
:1041A000059400E0044316F8013F203B01FA03F0B8
:1041B0001042F7D130782A2811D06FF02F033078D1
:1041C000A0F13002092A16D8059A44F0020402EB45
:1041D000820203EB42021044761C0590EFE759F887
:1041E000042B0592002A03DA504244F4005405904F
:1041F00044F00204761C30782E2816D116F8010FF0
:1042000044F004042A280DD06FF02F023078A0F17A
:104210003003092B09D807EB870302EB4303C718C8
:10422000761CF3E759F8047B761C30786C280FD0A5
:1042300006DC4C2817D068280DD06A2814D104E079
:10424000742810D07A280FD10DE044F400140AE04D
:1042500044F4801401E044F440147278824202D1A4
:1042600004F58014761C761C307866280BD013DC9D
:10427000582877D009DC002875D04528F6D0462884
:10428000F4D047281AD19DE118E0632835D064287E
:1042900079D0652812D195E1702873D008DC6728A1
:1042A000F1D069286FD06E280DD06F2806D1B5E007
:1042B00073282CD0752875D0782874D05A46179951
:1042C00090476D1C75E1C4F30250022809D0032801
:1042D0000DD0D9F8001004280DD00D6009F10409A3
:1042E00067E1D9F80010EA17C1E90052F6E7D9F8FA
:1042F00000100D80F2E70D70F0E719F8041B8DF83F
:10430000001000208DF80100EA46012003E059F872
:1043100004AB4FF0FF3061074FF0000102D40DE015
:1043200008F101018846B9420FDA8045F8DB1AF836
:1043300008100029F4D108E008F101018846814203
:10434000FADB1AF808100029F6D105985B46A0EBB5
:10435000080721463846179A00F094FA284400EBE3
:10436000080507E04DE029E10DE01AF8010B5A4677
:1043700017999047B8F10108F7D25B4621463846B5
:10438000179A13E142E00A220092C4F302524FF05E
:10439000000A022A08D059F804CB032A4FEAEC712C
:1043A0000AD00DE029E02AE009F1070121F0070217
:1043B000F2E802C1914609E00FFA8CFC4FEAEC7179
:1043C000042A03D14FFA8CFC4FEAEC71002907DA7A
:1043D0000A460021DCF1000C61EB02012D2202E013
:1043E000220504D52B228DF80420012203E0E207E8
:1043F00001D02022F7E7904659E00A2102E010227E
:104400000DE010214FF0000A00910BE010224FF058
:10441000000A44F004040827009203E008224FF049
:10442000000A0092C4F30252022A05D059F804CBC4
:104430000021032A08D009E009F1070121F0070251
:10444000F2E802C1914605E01FFA8CFC042A01D172
:104450000CF0FF0C4FF00008220728D5702806D07A
:10446000009B83F0100353EA0A0305D00EE04022BC
:104470008DF80420012208E05CEA010206D0302217
:104480008DF804208DF8050002229046009B83F0F1
:10449000080353EA0A030AD15CEA010201D1620768
:1044A00005D530228DF804204FF001087F1E5828D2
:1044B00004D034A003900EA802900DE036A0F9E7D6
:1044C00053466046009AFFF7F0FA84460398825CF0
:1044D0000298401E029002705CEA0100F0D102983E
:1044E00006A9081A00F1200A600702D524F48034D6
:1044F00000E00127574502DDA7EB0A0000E000209D
:1045000000EB0A01009005984144401A0590E00331
:1045100006D45B462146179A059800F0B3F9054486
:10452000002706E001A85A46C05D179990476D1C08
:104530007F1C4745F6DBE0030CD55B462146179A06
:10454000059800F09FF9054404E030205A46179979
:1045500090476D1C0099481E00900029F5DC08E08A
:10456000029802995A460078491C0291179990477F
:104570006D1CBAF10001AAF1010AF1DC65E100004D
:104580000928010030313233343536373839616229
:1045900063646566000000003031323334353637ED
:1045A00038394142434445460000000000F058F9C4
:1045B0000544761C307800287FF4ECAD19B028460D
:1045C000BDE8F08F620700D4062709F1070222F048
:1045D000070CFCE80223E14603F000485FEA080C00
:1045E00002D00FF2702C0DE05FEA045C02D50FF2EE
:1045F000682C07E05FEAC47C02D00FF2602C01E077
:10460000AFF2700C4FF0FF3823F00043CDF850C0EC
:1046100065280CD006DC452809D046281DD047283F
:104620003DD13DE0662818D067287ED138E00021D2
:10463000112F01DB112000E0781CCDE9000106A953
:104640000EA8FFF7DDFCDDE90F010E9A03910021B2
:10465000009207F1010A04914DE04FF000400097ED
:10466000CDE9011006A90EA8FFF7CAFCDDE90F028B
:1046700003920E9B11990022DDF80CA00093049286
:1046800011B9791C00EB010AB7EB0A0004D4C0F1A0
:10469000FF3007F1010A0490AAEB0700019044E003
:1046A000012F00DA01270021112F01DD112000E088
:1046B0003846CDE9000106A90EA8FFF7A1FCDDE907
:1046C0000F010E9A0391002104910092BA4621072E
:1046D0000CD40399514500DA8A46BAF1010F05DD81
:1046E000009AAAF10101515C302908D0B84202DADF
:1046F00010F1040F06DA0121CDE9011015E0AAF14D
:104700000101E9E7002805DC049901440491AAEBC2
:10471000000102E0411C514500DD8A460499401A1F
:10472000401C01904FF000400290200704D40198F3
:10473000504501DBCDF8048000208DF84F00029831
:104740000DF14F07B0F1004F25D02B200E900298AD
:104750004FF0020800280CDA404202902D200E9003
:1047600007E00A210298FFF78AF93031029007F832
:10477000011DB8F10001A8F10108F2DC029800283F
:10478000EFD1791E0E980870307800F0200040F0CC
:10479000450007F8020D12A8C01B00F10708149885
:1047A000007800B1012000EB0A01019801EBE071F3
:1047B00005984144401A401E0590E00306D45B462C
:1047C0002146179A059800F05DF805441498007882
:1047D00018B15A46179990476D1CE00324D55B46E3
:1047E0002146179A059800F04DF805441CE00498FE
:1047F000002807DBDDE90301884203DD0098405C07
:10480000179901E0179930205A469047049805F10E
:104810000105401C04900198401E019004D12E20F7
:104820005A46179990476D1CBAF10001AAF1010A86
:10483000DDDC05E017F8010B5A46179990476D1C0F
:10484000B8F10001A8F10108F4DC5B462146179A93
:104850000598ABE62D0000002B00000020000000B2
:104860002DE9F041044600251E461746880404D46D
:1048700005E039462020B0476D1C641EF9D5284656
:10488000BDE8F0812DE9F041044600251E46904622
:10489000C80301D5302700E02027880404D505E0AF
:1048A00041463846B0476D1C641EF9D52846BDE820
:1048B000F0810A68531C0B60107070470000C9003B
:1048C00092015B022403ED03B6047F05480611073D
:1048D000D907A2086A09330AFB0AC40B8C0C540DD1
:1048E0001C0EE30EAB0F72103A110112C8128F1397
:1048F00055141C15E215A8166E173318F918BE19B1
:10490000821A471B0B1CCF1C931D571E1A1FDD1F3D
:104910009F2061212322E522A62367242825E8255C
:10492000A82667272628E528A329612A1F2BDC2B28
:10493000992C552D112ECC2E872F4130FB30B531BF
:104940006E322633DF3396344D350436BA366F3740
:104950002438D9388C39403AF23AA53B563C073DC9
:10496000B83D683E173FC53F73402141CE417A4272
:104970002543D0437A442445CD4575461C47C3475B
:1049800069480F49B449584AFB4A9D4B3F4CE04C9B
:10499000814D204EBF4E5D4FFB4F97503351CE514E
:1049A000685202539B533254C9546055F5558A5688
:1049B0001D57B0574258D3586459F359825A0F5B68
:1049C0009C5B285CB35C3E5DC75D4F5ED75E5D5F00
:1049D000E35F6860EB606E61F0617162F162706369
:1049E000EE636C64E8646365DD655666CF664667B2
:1049F000BC673268A66819698B69FD696D6ADC6AF3
:104A00004A6BB76B236C8E6CF86C616DC96D306E40
:104A1000966EFB6E5E6FC16F22708370E2704071A4
:104A20009D71F9715472AE7207735E73B5730A7437
:104A30005F74B27404755575A575F37541768D76FE
:104A4000D87622776B77B377FA773F788478C77810
:104A500009794A798979C879057A417A7C7AB67A6E
:104A6000EE7A267B5C7B917BC57BF87B297C597C2D
:104A7000887CB67CE37C0E7D397D627D897DB07D4E
:104A8000D57DFA7D1D7E3E7E5F7E7E7E9C7EB97EDC
:104A9000D57EEF7E097F217F377F4D7F617F747FD9
:104AA000867F977FA67FB47FC17FCD7FD87FE17F50
:104AB000E97FF07FF57FF97FFD7FFE7F000000003A
:104AC000C9000000920100005B0200002403000006
:104AD000ED030000B6040000800500004906000058
:104AE00012070000A7080000710900003B0A00003F
:104AF000050B0000D00B00009B0C0000660D0000B1
:104B0000310E0000FD0E0000C90F000095100000DE
:104B100062110000181200002F120000FC120000A9
:104B2000CA13000098140000661500003516000036
:104B300005170000D4170000A51800007519000023
:104B4000471A0000191B0000EB1B0000BE1C0000F0
:104B5000911D0000651E00003A1F00000F2000009C
:104B6000E5200000BC210000942200006C2300001E
:104B7000442400001E250000F8250000D426000073
:104B8000B02700008C2800006A290000492A000094
:104B9000282B0000082C0000EA2C0000CC2D00007F
:104BA000AF2E0000942F000079300000603100002B
:104BB000473200003033000019340000093500008E
:104BC00071350000DE360000CD370000BD38000032
:104BD000AE390000A03A0000943B00008A3C00007F
:104BE000803D0000793E0000723F00006E400000F2
:104BF0006A41000069420000694300006A44000005
:104C00006E450000734600007A47000082480000AD
:104C10008D490000994A0000A84B0000B84C0000E4
:104C2000CA4D0000DF4E0000F54F00000E5100009D
:104C300028520000455300006554000086550000CE
:104C4000AA560000D1570000FA580000255A00006B
:104C5000535B0000845C0000B85D0000EE5E000065
:104C60002760000063610000A2620000E4630000AE
:104C70002965000071660000BD6700000C69000036
:104C80005E6A0000B36B00000D6D0000696E0000ED
:104C9000CA6F00002E7100009672000003740000BD
:104CA00073750000E776000060780000DD79000091
:104CB0005F7B0000E57C0000707E0000008000004B
:104CC000948100002E830000CD84000071860000D6
:104CD0001A880000CA8900007F8B0000398D00000F
:104CE000FA8E0000C19000008F92000063940000D3
:104CF0003D9600001F980000089A0000F79B0000F6
:104D0000EF9D0000EE9F0000F5A1000004A400004C
:104D10001BA600003BA8000064AA000096AC00009F
:104D2000D1AE000016B1000065B30000BEB50000B2
:104D300022B8000091BA00000BBD000090BF000037
:104D400022C20000C0C400006AC7000022CA0000DE
:104D5000E7CC000088CF00009DD200008ED5000077
:104D60008ED800009FDB0000C0DE0000F3E10000F1
:104D700038E500008FE80000FAEB000078EF000053
:104D80000BF30000B4F6000074FA00004AFE0000C5
:104D90003902010041060100640A0100A20E01006F
:104DA000FC120100741701000B1C0100032C010010
:104DB0009C250100992A0100BC2F01000435010047
:104DC000763A010012400100DB450100D34B01009F
:104DD000FD5101005A580100EE5E0100BC65010062
:104DE000C66C0100117401009F7B010076830100F5
:104DF000988B01000A940100D29C0100F5A50100E6
:104E000078AF010063B90100BBC3010088CE010087
:104E1000D2D90100A3E5010005F2010001FF010064
:104E2000A40C0200FB1A0200152A0200023A02003A
:104E3000D44A02009F5C02007B6F02007F83020065
:104E4000CA9802007CAF0200BAC70200AEE10200BD
:104E50008AFD0200841B0300DF3B0300E75E0300C2
:104E6000F584030073AE0300DDDB0300CB0D04000B
:104E7000F444040036820400A6C604009B13050017
:104E8000C96A050063CE05004441060040C706001C
:104E90008D65070074230800810B09007F2D0A002F
:104EA00046A20B0038930D00D74A1000245E140070
:104EB000CC281B00DABD28007E7C5100DC4E0008A7
:104EC0000000002008010000E03F0008E44F000857
:104ED0000801002030080000F03F000800A24A044A
:104EE000000000000000000001020304060708099A
:104EF0000000000001020304010203040607080980
:104F0000020406080000000000000000000000008D
:104F10000000000000000000000000000000000091
:104F20000000000000000000007D00000000000004
:104F30000000000000000000000000000000000071
:104F40000000000000000000000000000000000061
:104F50000000000000000000007D000000000000D4
:104F60000000000000000000000000000000000041
:104F70000000000000000000000000000000000031
:104F80000000000000000000000000000000000021
:104F900000000000E803000018000000000000000E
:104FA0000000000000000000000000000000000001
:104FB00000000000040000000000000000000000ED
:104FC0000000000000000000000058020000630123
:104FD0009D024801B80200003000000000000000FF
:044FE00000000000CD
:04000005080000ED02
:00000001FF
